:400000000010002011000000850200008502000008B500F073FA00F037F9000010B572B680220021D200384800F03DFD8023DA000021364800F037FD354C36490120EE229A
:40004000354B0870207010021860344C344899218022C02321600260D903324CD822324B1001216018603149314802243122314B0C600260992130481C600A0480232F49E8
:40008000026018062E4B08602E481A60027806211443047004782C4A0C43047010688023DC02044329492A4B146008781978294B141C1A78172A05D9274A58789978033B3D
:4000C0009342F6D1254B264A18602648016019211160052000F01CFC234B244918780860052000F093FC2268214B2248134023608021102404600B061F4A204C20482149C7
:4001000013602360086010BD00300F4000400F4011600F4002600F400C0001401000014000020440080204400803044000040440080404401804044020500F4024500F401A
:4001400030500F4000700F4000010B40CCF1FF0FCDF1FF0FC9F1FF0FBDF1FF0F1CFF0B402CFF0B4020FF0B40E5F1FF0F28FF0B40FFFFFBFF0802024008010B4004010B4006
:40018000CF0000800000024010B5064C2378002B07D10548002802D0044800E000BF0121217010BDF000002000000000C00A000008B5084B002B03D00748084900E000BF20
:4001C00007480168002903D0064A002A00D0904708BDC04600000000C00A0000F4000020D00000200000000008B5002000F07CFB00F086FB044B4022002800D180221A6016
:4002000000F044FB08BDC046C000002008B500F093F808BD70B5061C0D1C141C002020802388AB4205D2F05C00F0A2F820880130F5E7002070BD0000F7B5114C071C5C4375
:4002400000230191151C138010262888019A904214D2002C12DB00F083F8002809D02C8800F0E4F83E19013430702C800026044CEBE70A2000F0CAFB0A3CE6E7301CFEBDAE
:400280001027000000B5FEE770B50F490F4A01394B1C14D0506895681468031C1E1AAE4202D040CC40C3F9E7D0681D1C5C1B844202D0002640C3F9E710320139E8E700F015
:4002C000C3FBFFF791FFFEE701000000F00A000008B500239A00032B02D80D48815800E00C490D4801338150302BF3D1FFF796FE0A490B4B086800221A60002800D10860DC
:400300008022D305186801210843186008BDC046000000008502000000000020C0000020C8000020034B802219681006084318607047C0460000064010B5054C2378002B7B
:4003400003D100F02BF801202070FFF7EBFF10BD0C010020014B18687047C04640030640024B0F21186808407047C0460803064000B5044B0F211A6811400829F9D0024B58
:40038000186000BD0802064040020640024B002218681A607047C046C80F0640124A134B134810B51A6000230360124A124C1348012121600260124807240460114C124859
:4003C000236001601149124C0A601248124A134913602360124A0360124C13480B6013602360036010BDC0460B0000020000064040000640070000804800064000030640A9
:4004000004030640100306404400064000020640880E0640C80E064004020640480F0640080F0640C80F0640880F064010B5FFF7ADFF041CFFF794FF094B002803D01C6031
:40044000FFF788FF02E0074A10681C60064CD82321689A0022600A401402204310BDC046C80F064040030640C00F064000470000021C013830B506280DD800F0DBFA060E26
:400480002304080A2100164808E0164B1BE0164804E0164802E0002000E015484178007800020843022A04D0032A07D0012A15D104E0020A0302134398B20FE000BA0DE0A3
:4004C0000C4B00E00C4BDD789C7859781B7818062843250228430C042043E3E730BDC046D27F0000C17F0000D67F0000D47F0000C57F0000D87F0000C97F000008B50B4B27
:4005000010201A680A49024000D10A600B68802B0BD1002201200A60FFF7AAFF002804D00120FFF7A5FFFFF7A1FF08BD00030B40C000002070B5021C7F234004151C9D4379
:40054000A0B0000E00235C5D6E469C550133802BF9D17F252A40B154694600F0E9F920B070BD000070B50220FFF782FF061C0320FFF77EFF154B051C18780024012822D09C
:400580000220FFF775FF0136F201411C5619CB01221CB34209D21978481EC5B2FD2D00D801220C19E4B20133F3E7094E64423578E3B20624AB4206D1002A04D003480121EB
:4005C000FFF7B8FF0024201C70BDC046D17F0000C07F0000F0B5A34CA544FFF717FE62B600250095002603AF962124A849003A1CFF23FFF721FE0028F5D13988042306299C
:4006000067D924AA1478012C63D193236B4492221F786A4413783C021C4324AF3A19177953790197E71D9C4603238F4251D89179042317294DD1E3189BB2002B08D0BAAADB
:400640008949D7187A181778013BC01980B2F3E762464042019F110282B239430823914237D168E0342900D09AE0012D00D0F6E0032C00D0F3E06FA80021802200F013FA78
:4006800080266FA9881935192639E21EFF39AEB200F000FA832E00D0DAE0BC797979009F26020E43002F0AD1391C802204A800F0FAF9FF2004A900F03BF901200090301CB5
:4006C0006FA900F035F90125002800D1C3E000260A23002168469130012703706A4624AC6B4692330E32277000200F1D197058701180BBB25C4FBAACE418E4192778013B37
:40070000C0199BB280B2002BF4D14442A0B2BAAF564C7B181F19564C38701F19554C000A38701B19172707311F7089B224A89623FFF770FD57E724AF79783B79081C31384F
:400740000A2801D90523C4E700F06AF90611FC8C2FFC32428C507800012D00D07FE0002C7DD1FFF7FFFE434243413B7163E0012D75D1012C73D1002B71D13F4A25A81468CF
:4007800021889524CF0907703A0A97209627FF216C446F446844397022700370042199E7012D5CD1022C5AD96BE7012D57D119E7012D54D19620371943009F424DD86FAA2F
:4007C000901925A9221C00F065F9BEB2002380E7002C44D104AB294A191CA0CAA0C125AF21CB21C708210125231C73E7012D36D1032C34D196226A449521177869440C78C4
:4008000038021A0220438718FF01002280210139CC5D1219D2B20029F9D1002B08D1FF2806D1174B174918780C78171A3A1BD2B2504224AB1871002301214BE7FFF792FECF
:40084000002802D110488024046000F0D3F806E00125002601E0061CB8E7032339E7042337E7C04614FDFFFFA7FDFFFFACFDFFFFADFDFFFFAEFDFFFFD4000020C40A000092
:40088000D07F0000D17F0000C0000020144810B50368002219680B1C013BBF2B03D01C781219D2B2F8E740680478A21AD3B2A34201D1002902D1002000F09AF8FFF752FE48
:4008C000084C2168221C402901D0002803D000231360FFF77FFE8020206000F08BF810BDD4000020C0000020044B7F2219681140C201081C1043C1B2196070470002044086
:40090000024B18680106C80F7047C046040204400230800804D0C0460138FDD1C046C0467047EFF3108072B6704780F310887047F0B50023A7B0071C0193FF2845D899429F
:4009400043D0244A244C04AE26607F25049206A88022756000F09EF8204D214929602B68002BFCDB2068A0210290029A0B069A4201D1002004E00298020F0F2A02D109205A
:40098000019003E021680B0F0A2BFBD1019A002A1DD12660134E3F0437430497FFF7C1FF1149124A0B6803932A602F68002FFCDB039DA0260D60FFF7B8FF246831060294B8
:4009C0000298884203D0029800E001200190019827B0F0BDB6D70000080000400400004004000080B6D8000008010B400500008001BE7047034B04491A6890B208431860DB
:400A00007047C0460CED00E00400FA0508B5034B197A4843FFF77CFF08BDC046DC00002002B4714649084900095649008E4402BC7047C04602B4714649084900095C49000B
:400A40008E4402BC7047C04670B50E4B0E4D0024E81A85101E1CAC4204D0A100725890470134F8E700F032F80849094A0E1C541AA5100024AC4204D0A300F058804701346B
:400A8000F8E770BDD80A0000D80A0000D80A0000E00A000010B50023934203D0CC5CC4540133F9E710BD00B58218031C934202D019700133FAE700BD200B0000A1000000AD
:400AC000000000009311A60411140101F8B5C046F8BC08BC9E467047B1010000D1020000F8B5C046F8BC08BC9E46704789010000000B0000D00000202000000028000000A3
:400B000000000000B80A0000BC0A00000000E02EC05D00001800000000366E0100000000000000000000000000000000000000000000000000000000000000000000000045
:400B40000000000000000000000000000000000000000000000000000000000000000000000000000000000000000000000000000000000000000000000000000000000075
:400B800000100020910B0000950F0000950F000008B5024B83F3088800F0FEF900100020F8B572B680220021D200554800F01CFE80230021DA00534800F016FE0023191C54
:400BC000514FFF25D8594A00061CAE431837C4B2351CBA18002C07D01778013C7E195778E4B237700232F5E7C0B204330918182BE6D1464B07241C60EE27454E4548464C76
:400C00003D02992205213560444B0260444E2160C02244497C2510048527434C1F60434A3560D8270860424B4249256002263D0131201D60404C1660992708603F4B80226D
:400C40003F493D0490022660A8271D603D4C08603D4A3E48BB052560136005603C4D062429783C4F0E432E702E78802326432E703A68D8021043384D384938602878384B7E
:400C80000D783C1C1E78172E05D9364F58789D78033BBB42F6D1344A3449354B192610600D6005201E6000F0BBFC3248324F057805203D6000F0FCFC22683049304E11405D
:400CC000304B2160102020243460822518602E4A2E4B80212E4E2F482F060C0617602E4D34602E4F18602E4A2E4980242E4826033D600A600660012000F09CF9F8BDC0468A
:400D000000300F4000400F4000180000040001400C0001401000014000010440180104400002044008020440180204400004044008030440080404401804044010500F4020
:400D400018500F4020500F4028500F4030500F4000700F4000010B40CCF1FF0FCDF1FF0FC9F1FF0FBDF1FF0F1CFF0B4020FF0B402CFF0B40E5F1FF0F28FF0B40FFFFFBFFAD
:400D8000080202401C02024008010B400000024004010B4003000080CF00008040000240014020008000104000031A4010B5064C2378002B07D10548002802D0044800E097
:400DC00000BF0121217010BDE800002000000000FC17000008B5084B002B03D00748084900E000BF07480168002903D0064A002A00D0904708BDC04600000000FC17000099
:400E0000EC000020D00000200000000070B500F0D3FA00F0EDFB00F0F5FB012000F0E8FA462000F02FFC00F03DF900F069FA022000F07AFA00F06EFA002000F087FA334C41
:400E4000011C2080002000F08DFA00F02BF900F057FA022000F068FA00F05CFA002000F075FA4000608000F01DF900F049FA022000F05AFA00F04EFA0020668800F066FA3B
:400E8000051C002000F062FA721B011C10B200F053F900F067F90A2100F01EFC81B21C4E08B2C30018183180052100F015FC4130FF30708000F0F6F800F022FA022000F0CA
:400EC00033FA00F027FA002000F040FA64250223E15E684300F000FC0E4C208000F0E2F800F00EFA022000F01FFA00F013FA002000F02CFA084A1080002000F079FA00F077
:400F00008BFB00F035FA00F061FB70BD160100201C0100201A0100202001002010B500F07DFA00F0D7F900F039FB00F021FA00F04DFB00F087FA0028FBD000F0E9FAC4B2A3
:400F4000201C00F087FAFFF761FF652CF1D10E4C0120205600F07EFA0023E05E00F07AFA0A4C0121605600F075FA0023E05E00F071FA074C0122A05600F06CFA0023E05E91
:400F800000F068FAD5E7C0461C0100201A0100202001002000B5FEE770B50F490F4A01394B1C14D0506895681468031C1E1AAE4202D040CC40C3F9E7D0681D1C5C1B844288
:400FC00002D0002640C3F9E710320139E8E700F0E5FBFFF7A3FFFEE7010000005C23000008B500239A00032B02D80D48815800E00C490D4801338150302BF3D1FFF7D0FDDD
:401000000A490B4B086800221A60002800D108608022D305186801210843186008BDC046800B0000950F000000000020C0000020C8000020064B00B51A68191C002803D021
:4010400080200306134301E0500043080B6000BD80031A400C4B0D48FF221A7001680C4A0A40026003680B490B4A1940016003681A4002600168094B094A0B400360016812
:401080000A4002607047C046D400002008000140FFF9FFFFFF9FFFFFFFFFF9FFFFFF9FFFFFFFFFF900B51D4A1D4B10780130C1B248B21170042804D800F004FB050D151D0A
:4010C0002500002111701868164A02401A60C0201968C2001EE01968134AC0200A401A601968C20116E01968104AC0200A401A601968C2020EE018680D4A02401A60C0208B
:401100001968C20306E019680A4AC0200A401A601968C2040A431A6000BDC046D400002008000140FFFFFFF9FFF9FFFFFF9FFFFFFFFFF9FFFFFF9FFF08B5031C084848432B
:40114000002B05DA5A4291B24A08514289B201E09AB251080AB28018191C00F0BDFA08BD10270000AF2370B59B000024E5186E10B2B21949002A0DD0B5004E59B04209D08F
:40118000864202D9013294B201E0531E9BB29C42ECD300E0131C9C000A59824209D90F4DAB4206D85C1CA5004D59161A451BAE420AD8824209D2002B07D05C1EA600895934
:4011C0000D1A801A854200D2A3B20A225A43044C161930B270BDC04644180000BB02000018FCFFFF10B50E20032100F031FA1B490E2000F025FA1A4B1A491B4801221A601D
:401200001A4C01601A4B1B491B481C6001601B4C1B481C490023236008601B4C1B481C4904600C68802040022043086019491A4C0B601A481A492360022402600C60194C19
:4012400020680243226018488022184CD1002160174A0380174B1A6010BDC046E513000020001A40C002005000001A40A400008004001A400000FF0718001A401C001A4086
:40128000D800040010001A400400040014001A4000031A4028021A4038021A4018021A40000F1A4030001A402801002080001A40204E00002401002008B5054B8022196890
:4012C0001006084318600A2000F0F2F908BDC04600001A4010B5054C2378002B03D1FFF781FF01202070FFF7E7FF10BD04010020024B1A68500041081960704700001A4054
:40130000034B802219685002084318607047C04604001A40024B034A19680A401A60704704001A40FFFFFEFF011C00B500208B0709D0054A01231068184002D18B07F8D44C
:4013400001E01360181C00BD10021A40002100B5884202D1024B186881B208B200BDC04680011A40014B4000C15270472801002008B50D4B802219681006084318600B4BEB
:401380000B48196800290CDA0A4B1968C90301D5032200E001220270FFF7BCFFFFF7A8FF01E00022027008BD30001A4000001A400501002004001A40084B10B51A68084C5A
:4013C0005000410819602378002B06D0FFF782FF2278920701D5FFF793FF10BD30001A4005010020014B1A681A60704710021A40044B7F2219681140C201081C1043C1B2E0
:401400001960704700020440034B802219681006084318607047C0460000064010B5054C2378002B03D100F02BF801202070FFF7EBFF10BD08010020014B18687047C04616
:4014400040030640024B0F21186808407047C0460803064000B5044B0F211A6811400829F9D0024B186000BD0802064040020640024B002218681A607047C046C80F0640F2
:40148000124A134B134810B51A6000230360124A124C1348012121600260124807240460114C1248236001601149124C0A601248124A134913602360124A0360124C134812
:4014C0000B6013602360036010BDC0460B000002000006404000064007000080480006400003064004030640100306404400064000020640880E0640C80E06400402064062
:40150000480F0640080F0640C80F0640880F064010B5FFF7ADFF041CFFF794FF094B002803D01C60FFF788FF02E0074A10681C60064CD82321689A0022600A401402204383
:4015400010BDC046C80F064040030640C00F0640084B80221968100608431860064A074B002103201960106018680421084318607047C04600001040080F1040040010408F
:40158000044B03211A688A431A601868024A104318607047040010400308000008B5054B1A68002A03D101201860FFF7D1FFFFF7E7FF08BD10010020024B034A19680A401F
:4015C0001A60704704001040FCF7FFFF08B5064B03201A680549024004D001230B70FFF7EBFF00E00A7008BD040010401401002008B5034B1878012801D1FFF7C1FF08BD26
:401600001401002008B5FFF725FD024B01221A7008BDC0461501002008B5FFF71BFD08BD0230800804D0C0460138FDD1C046C0467047EFF3108072B6704780F310887047A4
:40164000024A83009B181868196070474000002038B5041C0D1CFFF7ECFFA308084A99008B1803221440944019680634A2409143A5400C1C2C431C60FFF7DFFF38BDC04603
:4016800000E400E010B5041C8022074B1002844205D91868FFF7C4FF04496418F4E758686043FFF7BDFF10BDD80000200080FFFF08B5034B197A4843FFF7B2FF08BDC04607
:4016C000D800002002B4714649084900095C49008E4402BC7047C046002941D010B4041C4C40A44601230022002900D54942002800D5404288422CD301242407A14204D23C
:40170000814202D209011B01F8E7E400A14204D2814202D249005B00F8E7884201D3401A1A434C08A04202D3001B5C0822438C08A04202D3001B9C082243CC08A04202D318
:40174000001BDC082243002803D01B0901D00909E3E7101C6446002C00D5404210BC7047002806D003DB0020C043400801E08020000607B4024802A14018029003BDC04637
:40178000190000000029EBD003B5FFF7A7FF0EBC4243891A1847C0467047C04670B50E4B0E4D0024E81A85101E1CAC4204D0A100725890470134F8E700F0BEFD0849094A8F
:4017C0000E1C541AA5100024AC4204D0A300F05880470134F8E770BD4423000044230000442300004C23000000B58218031C934202D019700133FAE700BD000000000000AF
:4018000005300F4002310F4002330F4005410F4004420F4003430F40300136013E4158045F0118011A80AA40B4015B409B40AB40D480EE8050406102D404D802B440B502F7
:40184000EC080000B0A90000E6A800001CA8000054A700008DA60000C7A5000001A500003DA400007AA30000B8A20000F7A1000037A1000078A00000BA9F0000FD9E0000B5
:40188000419E0000869D0000CC9C0000139C00005B9B0000A49A0000EE9900003999000085980000D19700001F9700006E960000BD9500000E9500005F940000B193000017
:4018C0000493000058920000AD910000039100005A900000B18F00000A8F0000638E0000BE8D0000198D0000758C0000D18B00002F8B00008D8A0000ED8900004D89000076
:40190000AE8800001088000072870000D68600003A8600009F850000058500006B840000D28300003B830000A48200000D82000078810000E38000004F800000BC7F0000F9
:40194000297F0000987E0000077E0000767D0000E77C0000587C0000CA7B00003D7B0000B07A0000247A0000997900000F79000085780000FC77000073770000EC760000DF
:4019800065760000DE75000059750000D47400004F740000CC73000049730000C772000045720000C471000044710000C470000045700000C66F0000496F0000CC6E00003B
:4019C0004F6E0000D36D0000586D0000DD6C0000636C0000EA6B0000716B0000F96A0000816A00000A6A0000946900001E690000A968000034680000C06700004C6700000F
:401A0000D966000067660000F56500008465000013650000A364000034640000C563000056630000E86200007B6200000E620000A261000036610000CB6000006060000043
:401A4000F65F00008C5F0000235F0000BB5E0000525E0000EB5D0000845D00001D5D0000B75C0000525C0000EC5B0000885B0000245B0000C05A00005D5A0000FA590000AA
:401A80009859000037590000D55800007558000015580000B557000055570000F7560000985600003A560000DD5500008055000023550000C75400006B54000010540000FE
:401AC000B55300005B53000001530000A85200004F520000F65100009E51000046510000EF5000009850000041500000EB4F0000954F0000404F0000EB4E0000974E0000F1
:401B0000434E0000EF4D00009C4D0000494D0000F74C0000A54C0000534C0000024C0000B14B0000604B0000104B0000C04A0000714A0000224A0000D3490000854900001B
:401B400037490000EA4800009D4800005048000004480000B84700006C47000021470000D64600008B46000041460000F7450000AD450000644500001B450000D34400000E
:401B80008B44000043440000FB430000B44300006D43000027430000E14200009B4200005542000010420000CB4100008741000042410000FF400000BB400000784000004E
:401BC00035400000F23F0000B03F00006E3F00002C3F0000EB3E0000A93E0000693E0000283E0000E83D0000A83D0000683D0000293D0000EA3C0000AB3C00006D3C000050
:401C00002F3C0000F13B0000B33B0000763B0000393B0000FC3A0000C03A0000843A0000483A00000C3A0000D1390000963900005B39000020390000E6380000AC3800007C
:401C4000723800003938000000380000C73700008E370000563700001D370000E6360000AE360000773600003F36000008360000D23500009B350000653500002F35000038
:401C8000FA340000C43400008F3400005A34000025340000F1330000BD330000893300005533000022330000EE320000BB320000883200005632000023320000F1310000E1
:401CC000BF3100008E3100005C3100002B310000FA300000C930000099300000683000003830000008300000D82F0000A92F00007A2F00004B2F00001C2F0000ED2E0000C0
:401D0000BF2E0000902E0000622E0000342E0000072E0000D92D0000AC2D00007F2D0000522D0000262D0000F92C0000CD2C0000A12C0000752C0000492C00001E2C000029
:401D4000F32B0000C82B00009D2B0000722B0000482B00001D2B0000F32A0000C92A00009F2A0000762A00004D2A0000232A0000FA290000D1290000A9290000802900005D
:401D8000582900003029000008290000E0280000B8280000912800006A280000432800001C280000F5270000CE270000A8270000822700005C270000362700001027000096
:401DC000EA260000C5260000A02600007B26000056260000312600000C260000E8250000C42500009F2500007B250000582500003425000010250000ED240000CA24000018
:401E0000A724000084240000612400003E2400001C240000FA230000D7230000B52300009323000072230000502300002F2300000D230000EC220000CB220000AA22000012
:401E40008A22000069220000492200002822000008220000E8210000C8210000A821000089210000692100004A2100002B2100000B210000EC200000CE200000AF200000B1
:401E80009020000072200000542000003520000017200000F91F0000DC1F0000BE1F0000A01F0000831F0000661F0000481F00002B1F00000E1F0000F11E0000D51E00002A
:401EC000B81E00009C1E00007F1E0000631E0000471E00002B1E00000F1E0000F31D0000D81D0000BC1D0000A11D0000861D00006A1D00004F1D0000341D00001A1D00009F
:401F0000FF1C0000E41C0000CA1C0000AF1C0000951C00007B1C0000611C0000471C00002D1C0000131C0000FA1B0000E01B0000C71B0000AD1B0000941B00007B1B000036
:401F4000621B0000491B0000301B0000171B0000FF1A0000E61A0000CE1A0000B61A00009D1A0000851A00006D1A0000551A00003E1A0000261A00000E1A0000F719000016
:401F8000DF190000C8190000B11900009A190000831900006C190000551900003E1900002719000011190000FA180000E4180000CE180000B8180000A11800008B1800005B
:401FC00075180000601800004A180000341800001F18000009180000F4170000DE170000C9170000B41700009F1700008A17000075170000601700004C1700003717000020
:40200000221700000E170000F9160000E5160000D1160000BD160000A916000095160000811600006D1600005916000046160000321600001E1600000B160000F815000085
:40204000E4150000D1150000BE150000AB150000981500008515000072150000601500004D1500003A150000281500001515000003150000F1140000DE140000CC140000A4
:40208000BA140000A8140000961400008414000072140000611400004F1400003D1400002C1400001A14000009140000F8130000E7130000D5130000C4130000B313000090
:4020C000A21300009113000080130000701300005F1300004E1300003E1300002D1300001D1300000C130000FC120000EC120000DB120000CB120000BB120000AB1200005E
:402100009B1200008B1200007C1200006C1200005C1200004C1200003D1200002D1200001E1200000F120000FF110000F0110000E1110000D2110000C2110000B311000021
:40214000A4110000951100008711000078110000691100005A1100004C1100003D1100002F110000201100001211000003110000F5100000E7100000D8100000CA100000ED
:40218000BC100000AE100000A0100000921000008410000077100000691000005B1000004D100000401000003210000025100000171000000A100000FD0F0000EF0F0000D5
:4021C000E20F0000D50F0000C80F0000BA0F0000AD0F0000A00F0000930F0000870F00007A0F00006D0F0000600F0000530F0000470F00003A0F00002E0F0000210F0000E5
:40220000150F0000080F0000FC0E0000EF0E0000E30E0000D70E0000CB0E0000BE0E0000B20E0000A60E00009A0E00008E0E0000820E0000770E00006B0E00005F0E00002E
:40224000530E0000470E00003C0E0000300E0000250E0000190E00000E0E0000020E0000F70D0000EB0D0000E00D0000D50D0000CA0D0000BE0D0000B30D0000A80D0000B8
:402280009D0D0000920D0000870D00007C0D0000710D0000660D00005B0D0000510D0000460D00003B0D0000310D0000260D00001B0D0000110D0000060D0000FC0C000094
:4022C000F10C0000E70C0000DD0C0000D20C0000C80C0000BE0C0000B40C0000A90C00009F0C0000950C00008B0C0000810C0000770C00006D0C0000630C0000590C0000D4
:40230000500C0000460C00003C0C0000320C0000290C00001F0C0000150C00000C0C0000020C0000F90B0000EF0B0000E60B0000DC0B0000D30B0000F8B5C046F8BC08BCE3
:402340009E467047D50D0000E10F0000F8B5C046F8BC08BC9E467047AD0D000070230000D000002018000000480000000000000000000000FF0000000000E02EC05D000063
:402380001800000000366E01000000000000000000000000000000000000000000000000000000000000000000000000000000000000000000000000000000000000000060
:4023C00000000000000000000000000000000000000000000000000000000000000000000000000000000000000000000000000000000000000000000000000000000000DD
:40240000000000000000000000000000000000000000000000000000000000000000000000000000000000000000000000000000000000000000000000000000000000009C
:40244000000000000000000000000000000000000000000000000000000000000000000000000000000000000000000000000000000000000000000000000000000000005C
:40248000000000000000000000000000000000000000000000000000000000000000000000000000000000000000000000000000000000000000000000000000000000001C
:407FC00030910B0000160000008018000000000000000000000000000000000000000000000000000000000000000000000000000000000000000000000000000000000007
:0200000490303A
:020000009F0B54
:0200000490402A
:200000000000000000000000000000000000000000000000000000000000000000000000E0
:0200000490501A
:0C000000000204A61193110104AFB09E91
:0200000490600A
:0100000001FE
:00000001FF