:400000000010002011000000850200008502000008B500F073FA00F037F9000010B572B680220021D200384800F03DFD8023DA000021364800F037FD354C36490120EE229A
:40004000354B0870207010021860344C344899218022C02321600260D903324CD822324B1001216018603149314802243122314B0C600260992130481C600A0480232F49E8
:40008000026018062E4B08602E481A60027806211443047004782C4A0C43047010688023DC02044329492A4B146008781978294B141C1A78172A05D9274A58789978033B3D
:4000C0009342F6D1254B264A18602648016019211160052000F01CFC234B244918780860052000F093FC2268214B2248134023608021102404600B061F4A204C20482149C7
:4001000013602360086010BD00300F4000400F4011600F4002600F400C0001401000014000020440080204400803044000040440080404401804044020500F4024500F401A
:4001400030500F4000700F4000010B40CCF1FF0FCDF1FF0FC9F1FF0FBDF1FF0F1CFF0B402CFF0B4020FF0B40E5F1FF0F28FF0B40FFFFFBFF0802024008010B4004010B4006
:40018000CF0000800000024010B5064C2378002B07D10548002802D0044800E000BF0121217010BDF000002000000000C00A000008B5084B002B03D00748084900E000BF20
:4001C00007480168002903D0064A002A00D0904708BDC04600000000C00A0000F4000020D00000200000000008B5002000F07CFB00F086FB044B4022002800D180221A6016
:4002000000F044FB08BDC046C000002008B500F093F808BD70B5061C0D1C141C002020802388AB4205D2F05C00F0A2F820880130F5E7002070BD0000F7B5114C071C5C4375
:4002400000230191151C138010262888019A904214D2002C12DB00F083F8002809D02C8800F0E4F83E19013430702C800026044CEBE70A2000F0CAFB0A3CE6E7301CFEBDAE
:400280001027000000B5FEE770B50F490F4A01394B1C14D0506895681468031C1E1AAE4202D040CC40C3F9E7D0681D1C5C1B844202D0002640C3F9E710320139E8E700F015
:4002C000C3FBFFF791FFFEE701000000F00A000008B500239A00032B02D80D48815800E00C490D4801338150302BF3D1FFF796FE0A490B4B086800221A60002800D10860DC
:400300008022D305186801210843186008BDC046000000008502000000000020C0000020C8000020034B802219681006084318607047C0460000064010B5054C2378002B7B
:4003400003D100F02BF801202070FFF7EBFF10BD0C010020014B18687047C04640030640024B0F21186808407047C0460803064000B5044B0F211A6811400829F9D0024B58
:40038000186000BD0802064040020640024B002218681A607047C046C80F0640124A134B134810B51A6000230360124A124C1348012121600260124807240460114C124859
:4003C000236001601149124C0A601248124A134913602360124A0360124C13480B6013602360036010BDC0460B0000020000064040000640070000804800064000030640A9
:4004000004030640100306404400064000020640880E0640C80E064004020640480F0640080F0640C80F0640880F064010B5FFF7ADFF041CFFF794FF094B002803D01C6031
:40044000FFF788FF02E0074A10681C60064CD82321689A0022600A401402204310BDC046C80F064040030640C00F064000470000021C013830B506280DD800F0DBFA060E26
:400480002304080A2100164808E0164B1BE0164804E0164802E0002000E015484178007800020843022A04D0032A07D0012A15D104E0020A0302134398B20FE000BA0DE0A3
:4004C0000C4B00E00C4BDD789C7859781B7818062843250228430C042043E3E730BDC046D27F0000C17F0000D67F0000D47F0000C57F0000D87F0000C97F000008B50B4B27
:4005000010201A680A49024000D10A600B68802B0BD1002201200A60FFF7AAFF002804D00120FFF7A5FFFFF7A1FF08BD00030B40C000002070B5021C7F234004151C9D4379
:40054000A0B0000E00235C5D6E469C550133802BF9D17F252A40B154694600F0E9F920B070BD000070B50220FFF782FF061C0320FFF77EFF154B051C18780024012822D09C
:400580000220FFF775FF0136F201411C5619CB01221CB34209D21978481EC5B2FD2D00D801220C19E4B20133F3E7094E64423578E3B20624AB4206D1002A04D003480121EB
:4005C000FFF7B8FF0024201C70BDC046D17F0000C07F0000F0B5A34CA544FFF717FE62B600250095002603AF962124A849003A1CFF23FFF721FE0028F5D13988042306299C
:4006000067D924AA1478012C63D193236B4492221F786A4413783C021C4324AF3A19177953790197E71D9C4603238F4251D89179042317294DD1E3189BB2002B08D0BAAADB
:400640008949D7187A181778013BC01980B2F3E762464042019F110282B239430823914237D168E0342900D09AE0012D00D0F6E0032C00D0F3E06FA80021802200F013FA78
:4006800080266FA9881935192639E21EFF39AEB200F000FA832E00D0DAE0BC797979009F26020E43002F0AD1391C802204A800F0FAF9FF2004A900F03BF901200090301CB5
:4006C0006FA900F035F90125002800D1C3E000260A23002168469130012703706A4624AC6B4692330E32277000200F1D197058701180BBB25C4FBAACE418E4192778013B37
:40070000C0199BB280B2002BF4D14442A0B2BAAF564C7B181F19564C38701F19554C000A38701B19172707311F7089B224A89623FFF770FD57E724AF79783B79081C31384F
:400740000A2801D90523C4E700F06AF90611FC8C2FFC32428C507800012D00D07FE0002C7DD1FFF7FFFE434243413B7163E0012D75D1012C73D1002B71D13F4A25A81468CF
:4007800021889524CF0907703A0A97209627FF216C446F446844397022700370042199E7012D5CD1022C5AD96BE7012D57D119E7012D54D19620371943009F424DD86FAA2F
:4007C000901925A9221C00F065F9BEB2002380E7002C44D104AB294A191CA0CAA0C125AF21CB21C708210125231C73E7012D36D1032C34D196226A449521177869440C78C4
:4008000038021A0220438718FF01002280210139CC5D1219D2B20029F9D1002B08D1FF2806D1174B174918780C78171A3A1BD2B2504224AB1871002301214BE7FFF792FECF
:40084000002802D110488024046000F0D3F806E00125002601E0061CB8E7032339E7042337E7C04614FDFFFFA7FDFFFFACFDFFFFADFDFFFFAEFDFFFFD4000020C40A000092
:40088000D07F0000D17F0000C0000020144810B50368002219680B1C013BBF2B03D01C781219D2B2F8E740680478A21AD3B2A34201D1002902D1002000F09AF8FFF752FE48
:4008C000084C2168221C402901D0002803D000231360FFF77FFE8020206000F08BF810BDD4000020C0000020044B7F2219681140C201081C1043C1B2196070470002044086
:40090000024B18680106C80F7047C046040204400230800804D0C0460138FDD1C046C0467047EFF3108072B6704780F310887047F0B50023A7B0071C0193FF2845D899429F
:4009400043D0244A244C04AE26607F25049206A88022756000F09EF8204D214929602B68002BFCDB2068A0210290029A0B069A4201D1002004E00298020F0F2A02D109205A
:40098000019003E021680B0F0A2BFBD1019A002A1DD12660134E3F0437430497FFF7C1FF1149124A0B6803932A602F68002FFCDB039DA0260D60FFF7B8FF246831060294B8
:4009C0000298884203D0029800E001200190019827B0F0BDB6D70000080000400400004004000080B6D8000008010B400500008001BE7047034B04491A6890B208431860DB
:400A00007047C0460CED00E00400FA0508B5034B197A4843FFF77CFF08BDC046DC00002002B4714649084900095649008E4402BC7047C04602B4714649084900095C49000B
:400A40008E4402BC7047C04670B50E4B0E4D0024E81A85101E1CAC4204D0A100725890470134F8E700F032F80849094A0E1C541AA5100024AC4204D0A300F058804701346B
:400A8000F8E770BDD80A0000D80A0000D80A0000E00A000010B50023934203D0CC5CC4540133F9E710BD00B58218031C934202D019700133FAE700BD200B0000A1000000AD
:400AC000000000009311A60411140101F8B5C046F8BC08BC9E467047B1010000D1020000F8B5C046F8BC08BC9E46704789010000000B0000D00000202000000028000000A3
:400B000000000000B80A0000BC0A00000000E02EC05D00001800000000366E0100000000000000000000000000000000000000000000000000000000000000000000000045
:400B40000000000000000000000000000000000000000000000000000000000000000000000000000000000000000000000000000000000000000000000000000000000075
:400B800000100020910B0000E90F0000E90F000008B5024B83F3088800F028FA00100020F8B572B680220021D200554800F058FE80230021DA00534800F052FE0023191C09
:400BC000514FFF25D8594A00061CAE431837C4B2351CBA18002C07D01778013C7E195778E4B237700232F5E7C0B204330918182BE6D1464B07241C60EE27454E4548464C76
:400C00003D02992205213560444B0260444E2160C02244497C2510048527434C1F60434A3560D8270860424B4249256002263D0131201D60404C1660992708603F4B80226D
:400C40003F493D0490022660A8271D603D4C08603D4A3E48BB052560136005603C4D062429783C4F0E432E702E78802326432E703A68D8021043384D384938602878384B7E
:400C80000D783C1C1E78172E05D9364F58789D78033BBB42F6D1344A3449354B192610600D6005201E6000F0F7FC3248324F057805203D6000F038FD22683049304E1140E4
:400CC000304B2160102020243460822518602E4A2E4B80212E4E2F482F060C0617602E4D34602E4F18602E4A2E4980242E4826033D600A600660012000F0C6F9F8BDC04660
:400D000000300F4000400F4078180000040001400C0001401000014000010440180104400002044008020440180204400004044008030440080404401804044010500F40A8
:400D400018500F4020500F4028500F4030500F4000700F4000010B40CCF1FF0FCDF1FF0FC9F1FF0FBDF1FF0F1CFF0B4020FF0B402CFF0B40E5F1FF0F28FF0B40FFFFFBFFAD
:400D8000080202401C02024008010B400000024004010B4004000080CF00008040000240014020008000104000031A4010B5064C2378002B07D10548002802D0044800E096
:400DC00000BF0121217010BDE8000020000000007418000008B5084B002B03D00748084900E000BF07480168002903D0064A002A00D0904708BDC0460000000074180000A7
:400E0000EC000020D00000200000000070B500F0FDFA00F027FC00F02FFC012000F012FB462000F06BFC00F067F900F093FA022000F0A4FA00F098FA002000F0B1FA344C67
:400E4000011C2080002000F0B7FA00F055F900F081FA022000F092FA00F086FA002000F09FFA4000608000F047F900F073FA022000F084FA00F078FA0020668800F090FA6D
:400E8000051C002000F08CFA721B011C10B200F07DF900F091F90A2100F05AFC81B21D4E08B2C30018183180052100F051FC4130FF30708000F020F900F04CFA022000F07E
:400EC0005DFA00F051FA002000F06AFAFA25AA0050430223E15E00F03BFC0F4C208000F00BF900F037FA022000F048FA00F03CFA002000F055FA09490880002000F0A2FA96
:400F000000F0C4FB00F05EFA00F09AFB70BDC046160100201C0100201A0100202001002038B500F0A5FA00F0FFF900F071FB00F049FA00F085FB00F0B7FA00F0ADFA00284F
:400F4000FBD000F01FFB051CEC43EDB2FFF75EFF281C00F0B9FA281C6338E4B2152838D800F0ECFB0B0D370F131B233737373737373737373737372F3725184B0EE0174D57
:400F800016E016480222805E0AE0144DE878211ACCB200F099FAA87810E0114B0022985E0A2100F0D5FBC0B208E00D4D00E00D4D6878221AD4B200F087FA2878241AE4B210
:400FC00005E00020013C00F07FFAE4B2012000F07BFA201C00F078FAADE7C0461C0100201A0100202001002000B5FEE770B50F490F4A01394B1C14D0506895681468031CF4
:401000001E1AAE4202D040CC40C3F9E7D0681D1C5C1B844202D0002640C3F9E710320139E8E700F0F7FBFFF77BFFFEE7010000008428000008B500239A00032B02D80D4838
:40104000815800E00C490D4801338150302BF3D1FFF7A6FD0A490B4B086800221A60002800D108608022D305186801210843186008BDC046800B0000E90F000000000020ED
:40108000C0000020C8000020064B00B51A68191C002803D080200306134301E0500043080B6000BD80031A400C4B0D48FF221A7001680C4A0A40026003680B490B4A194001
:4010C000016003681A4002600168094B094A0B40036001680A4002607047C046D400002008000140FFF9FFFFFF9FFFFFFFFFF9FFFFFF9FFFFFFFFFF900B51D4A1D4B107875
:401100000130C1B248B21170042804D800F016FB050D151D2500002111701868164A02401A60C0201968C2001EE01968134AC0200A401A601968C20116E01968104AC02048
:401140000A401A601968C2020EE018680D4A02401A60C0201968C20306E019680A4AC0200A401A601968C2040A431A6000BDC046D400002008000140FFFFFFF9FFF9FFFF66
:40118000FF9FFFFFFFFFF9FFFFFF9FFF08B5031C08484843002B05DA5A4291B24A08514289B201E09AB251080AB28018191C00F0CFFA08BD10270000FA2370B59B0000247C
:4011C000E5186E10B2B21949002A0DD0B5004E59B04209D0864202D9013294B201E0531E9BB29C42ECD300E0131C9C000A59824209D90F4DAB4206D85C1CA5004D59161A5A
:40120000451BAE420AD8824209D2002B07D05C1EA60089590D1A801A854200D2A3B20A225A43044C161930B270BDC046BC180000E703000030F8FFFF10B50E20032100F0E2
:4012400043FA1B490E2000F037FA1A4B1A491B4801221A601A4C01601A4B1B491B481C6001601B4C1B481C490023236008601B4C1B481C4904600C688020400220430860F5
:4012800019491A4C0B601A481A492360022402600C60194C20680243226018488022184CD1002160174A0380174B1A6010BDC0463914000020001A40C002005000001A408D
:4012C000A400008004001A400000FF0718001A401C001A40D800040010001A400400040014001A4000031A4028021A4038021A4018021A40000F1A4030001A40280100209D
:4013000080001A40204E00002401002008B5054B802219681006084318600A2000F004FA08BDC04600001A4010B5054C2378002B03D1FFF781FF01202070FFF7E7FF10BD5A
:4013400004010020024B1A68500041081960704700001A40034B802219685002084318607047C04604001A40024B034A19680A401A60704704001A40FFFFFEFF011C00B5F4
:4013800000208B0709D0054A01231068184002D18B07F8D401E01360181C00BD10021A40002100B5884202D1024B186881B208B200BDC04680011A40014B4000C15270475C
:4013C0002801002008B50D4B802219681006084318600B4B0B48196800290CDA0A4B1968C90301D5032200E001220270FFF7BCFFFFF7A8FF01E00022027008BD30001A4036
:4014000000001A400501002004001A40084B10B51A68084C5000410819602378002B06D0FFF782FF2278920701D5FFF793FF10BD30001A4005010020014B1A681A607047AE
:4014400010021A40044B7F2219681140C201081C1043C1B21960704700020440034B802219681006084318607047C0460000064010B5054C2378002B03D100F03BF80120DA
:401480002070FFF7EBFF10BD08010020014B18687047C04640030640024B0F21186808407047C04608030640054B802219685002084318601968034A0A401A607047C0468A
:4014C00004030640FFFFFEFF00B5044B0F211A6811400829F9D0024B186000BD0802064040020640024B002218681A607047C046C80F0640124A134B134810B51A6000238F
:401500000360124A124C1348012121600260124807240460114C1248236001601149124C0A601248124A134913602360124A0360124C13480B6013602360036010BDC04671
:401540000B000002000006404000064007000080480006400003064004030640100306404400064000020640880E0640C80E064004020640480F0640080F0640C80F064061
:40158000880F064010B5FFF7ADFF041CFFF784FF094B002803D01C60FFF778FF02E0074A10681C60064CD82321689A0022600A401402204310BDC046C80F064040030640C1
:4015C000C00F0640084B80221968100608431860064A074B002103201960106018680421084318607047C04600001040080F104004001040044B03211A688A431A601868CC
:40160000024A104318607047040010400308000008B5054B1A68002A03D101201860FFF7D1FFFFF7E7FF08BD10010020024B034A19680A401A60704704001040FCF7FFFFE4
:4016400008B5064B03201A680549024004D001230B70FFF7EBFF00E00A7008BD040010401401002008B5034B1878012801D1FFF7C1FF08BD1401002008B5FFF715FD024BD4
:4016800001221A7008BDC0461501002008B5FFF70BFD08BD000000000230800804D0C0460138FDD1C046C0467047EFF3108072B6704780F310887047024A83009B18186889
:4016C000196070474000002038B5041C0D1CFFF7ECFFA308084A99008B1803221440944019680634A2409143A5400C1C2C431C60FFF7DFFF38BDC04600E400E010B5041CDC
:401700008022074B1002844205D91868FFF7C4FF04496418F4E758686043FFF7BDFF10BDD80000200080FFFF08B5034B197A4843FFF7B2FF08BDC046D800002002B47146CA
:4017400049084900095C49008E4402BC7047C046002941D010B4041C4C40A44601230022002900D54942002800D5404288422CD301242407A14204D2814202D209011B0163
:40178000F8E7E400A14204D2814202D249005B00F8E7884201D3401A1A434C08A04202D3001B5C0822438C08A04202D3001B9C082243CC08A04202D3001BDC0822430028C9
:4017C00003D01B0901D00909E3E7101C6446002C00D5404210BC7047002806D003DB0020C043400801E08020000607B4024802A14018029003BDC046190000000029EBD046
:4018000003B5FFF7A7FF0EBC4243891A1847C0467047C04670B50E4B0E4D0024E81A85101E1CAC4204D0A100725890470134F8E701F016F80849094A0E1C541AA510002446
:40184000AC4204D0A300F05880470134F8E770BD6C2800006C2800006C2800007428000000B58218031C934202D019700133FAE700BD00000000000005300F4002310F40E5
:4018800002330F4005410F4004420F4003430F40300136013E4158045F0118011A80AA40B4015B409B40AB40D480EE8050406102D404D802B440B502EC0800008D0A0100F1
:4018C00043090100FA070100B30601006E0501002B040100EA020100AA0101006C00010030FF0000F5FD0000BCFC000085FB000050FA00001CF90000EAF70000B9F60000ED
:401900008AF500005DF4000031F3000007F20000DFF00000B8EF000093EE000070ED00004EEC00002DEB00000EEA0000F1E80000D5E70000BAE60000A2E500008AE40000F2
:4019400074E3000060E200004DE100003CE000002CDF00001DDE000010DD000005DC0000FADA0000F2D90000EAD80000E4D70000E0D60000DDD50000DBD40000DAD30000D0
:40198000DBD20000DDD10000E1D00000E6CF0000ECCE0000F4CD0000FDCC000007CC000012CB00001FCA00002DC900003DC800004DC700005FC6000072C5000087C40000D3
:4019C0009CC30000B3C20000CBC10000E4C00000FFBF00001BBF000038BE000056BD000075BC000095BB0000B7BA0000DAB90000FEB8000023B8000049B7000070B6000006
:401A000099B50000C2B40000EDB3000019B3000046B2000074B10000A3B00000D3AF000004AF000037AE00006AAD00009FAC0000D4AB00000BAB000042AA00007BA9000045
:401A4000B5A80000EFA700002BA7000068A60000A5A50000E4A4000024A4000065A30000A6A20000E9A100002DA1000071A00000B79F0000FD9E0000459E00008D9D000042
:401A8000D79C0000219C00006C9B0000B89A0000059A000053990000A2980000F29700004397000094960000E79500003A9500008E940000E393000039930000909200007A
:401AC000E8910000409100009A900000F48F00004F8F0000AB8E0000088E0000658D0000C48C0000238C0000838B0000E48A0000458A0000A88900000B8900006F8800004A
:401B0000D487000039870000A0860000078600006F850000D784000041840000AB8300001683000081820000EE8100005B810000C980000037800000A77F0000177F0000F2
:401B4000877E0000F97D00006B7D0000DE7C0000527C0000C67B00003B7B0000B17A0000277A00009E790000167900008E7800000778000081770000FB7600007676000097
:401B8000F27500006E750000EB74000069740000E773000066730000E672000066720000E771000068710000EB7000006D700000F16F0000746F0000F96E00007E6E00003D
:401BC000046E00008A6D0000116D0000996C0000216C0000AA6B0000336B0000BD6A0000476A0000D26900005E690000EA68000077680000046800009267000020670000C2
:401C0000AF6600003F660000CF6500005F650000F06400008264000014640000A76300003A630000CE62000062620000F76100008D61000022610000B96000005060000013
:401C4000E75F00007F5F0000175F0000B05E00004A5E0000E45D00007E5D0000195D0000B45C0000505C0000EC5B0000895B0000265B0000C45A0000625A0000015A0000E5
:401C8000A059000040590000E05800008058000021580000C25700006457000007570000A95600004D560000F05500009455000039550000DE5400008354000029540000F3
:401CC000CF530000765300001D530000C55200006C52000015520000BE5100006751000010510000BA500000655000000F500000BB4F0000664F0000124F0000BF4E0000DA
:401D00006B4E0000194E0000C64D0000744D0000224D0000D14C0000804C0000304C0000DF4B0000904B0000404B0000F14A0000A34A0000544A0000064A0000B949000033
:401D40006C4900001F490000D2480000864800003A480000EF470000A4470000594700000F470000C54600007B46000032460000E8450000A0450000574500000F4500007F
:401D8000C84400008044000039440000F3430000AC4300006643000021430000DB42000096420000514200000D420000C94100008541000041410000FE400000BB40000042
:401DC0007940000036400000F43F0000B33F0000713F0000303F0000F03E0000AF3E00006F3E00002F3E0000EF3D0000B03D0000713D0000323D0000F43C0000B63C0000E3
:401E0000783C00003A3C0000FD3B0000C03B0000833B0000463B00000A3B0000CE3A0000933A0000573A00001C3A0000E1390000A73900006C39000032390000F8380000CB
:401E4000BF380000853800004C38000014380000DB370000A33700006B37000033370000FB360000C43600008D3600005636000020360000E9350000B33500007E3500005D
:401E80004835000013350000DE340000A934000074340000403400000C340000D8330000A4330000703300003D3300000A330000D7320000A53200007332000040320000E9
:401EC0000F320000DD310000AB3100007A3100004931000018310000E8300000B8300000873000005730000028300000F82F0000C92F00009A2F00006B2F00003C2F0000C6
:401F00000E2F0000DF2E0000B12E0000842E0000562E0000282E0000FB2D0000CE2D0000A12D0000752D0000482D00001C2D0000F02C0000C42C0000982C00006D2C000032
:401F4000412C0000162C0000EB2B0000C02B0000962B00006B2B0000412B0000172B0000ED2A0000C42A00009A2A0000712A0000482A00001F2A0000F6290000CD29000078
:401F8000A52900007D290000552900002D29000005290000DE280000B62800008F28000068280000412800001A280000F4270000CD270000A7270000812700005B270000CE
:401FC0003627000010270000EB260000C5260000A02600007B26000057260000322600000E260000E9250000C5250000A12500007D2500005A25000036250000132500006F
:40200000F0240000CC240000AA2400008724000064240000422400001F240000FD230000DB230000B92300009723000076230000542300003323000012230000F122000090
:40204000D0220000AF2200008E2200006E2200004E2200002D2200000D220000ED210000CD210000AE2100008E2100006F210000502100003021000011210000F22000005F
:40208000D4200000B520000097200000782000005A2000003C2000001E20000000200000E21F0000C41F0000A71F00008A1F00006C1F00004F1F0000321F0000151F000003
:4020C000F91E0000DC1E0000BF1E0000A31E0000871E00006A1E00004E1E0000321E0000171E0000FB1D0000DF1D0000C41D0000A81D00008D1D0000721D0000571D0000AC
:402100003C1D0000211D0000061D0000EC1C0000D11C0000B71C00009D1C0000831C0000681C00004F1C0000351C00001B1C0000011C0000E81B0000CE1B0000B51B000075
:402140009C1B0000831B00006A1B0000511B0000381B00001F1B0000071B0000EE1A0000D61A0000BD1A0000A51A00008D1A0000751A00005D1A0000451A00002E1A000088
:40218000161A0000FF190000E7190000D0190000B9190000A11900008A190000731900005C190000461900002F1900001819000002190000EC180000D5180000BF18000003
:4021C000A9180000931800007D18000067180000511800003B1800002618000010180000FB170000E6170000D0170000BB170000A6170000911700007C17000067170000FF
:40220000521700003E170000291700001517000000170000EC160000D8160000C3160000AF1600009B1600008716000073160000601600004C160000381600002516000097
:4022400011160000FE150000EA150000D7150000C4150000B11500009E1500008B150000781500006515000053150000401500002D1500001B15000008150000F6140000EA
:40228000E4140000D2140000BF140000AD1400009B1400008914000078140000661400005414000042140000311400001F1400000E140000FC130000EB130000DA13000008
:4022C000C9130000B8130000A713000096130000851300007413000063130000521300004213000031130000211300001013000000130000EF120000DF120000CF12000004
:40230000BF120000AF1200009F1200008F1200007F1200006F1200005F120000501200004012000030120000211200001112000002120000F3110000E3110000D4110000F9
:40234000C5110000B6110000A711000098110000891100007A1100006B1100005C1100004E1100003F11000030110000221100001311000005110000F7100000E8100000F5
:40238000DA100000CC100000BE100000B0100000A21000009410000086100000781000006A1000005C1000004E100000411000003310000025100000181000000A10000006
:4023C000FD0F0000F00F0000E20F0000D50F0000C80F0000BB0F0000AE0F0000A00F0000930F0000860F00007A0F00006D0F0000600F0000530F0000460F00003A0F000045
:402400002D0F0000200F0000140F0000070F0000FB0E0000EF0E0000E20E0000D60E0000CA0E0000BD0E0000B10E0000A50E0000990E00008D0E0000810E0000750E0000B5
:40244000690E00005D0E0000510E0000460E00003A0E00002E0E0000230E0000170E00000C0E0000000E0000F50D0000E90D0000DE0D0000D20D0000C70D0000BC0D000066
:40248000B10D0000A50D00009A0D00008F0D0000840D0000790D00006E0D0000630D0000580D00004E0D0000430D0000380D00002D0D0000230D0000180D00000D0D000069
:4024C000030D0000F80C0000EE0C0000E30C0000D90C0000CE0C0000C40C0000BA0C0000B00C0000A50C00009B0C0000910C0000870C00007D0C0000730C0000690C0000C9
:402500005F0C0000550C00004B0C0000410C0000370C00002D0C0000240C00001A0C0000100C0000070C0000FD0B0000F30B0000EA0B0000E00B0000D70B0000CE0B000089
:40254000C40B0000BB0B0000B10B0000A80B00009F0B0000960B00008C0B0000830B00007A0B0000710B0000680B00005F0B0000560B00004D0B0000440B00003B0B0000BB
:40258000320B0000290B0000210B0000180B00000F0B0000060B0000FE0A0000F50A0000EC0A0000E40A0000DB0A0000D30A0000CA0A0000C20A0000B90A0000B10A000065
:4025C000A80A0000A00A0000980A00008F0A0000870A00007F0A0000770A00006F0A0000660A00005E0A0000560A00004E0A0000460A00003E0A0000360A00002E0A000090
:40260000260A00001E0A0000160A00000F0A0000070A0000FF090000F7090000F0090000E8090000E0090000D9090000D1090000C9090000C2090000BA090000B309000045
:40264000AB090000A40900009C090000950900008E090000860900007F090000780900007009000069090000620900005B090000530900004C090000450900003E09000087
:40268000370900003009000029090000220900001B090000140900000D09000006090000FF080000F8080000F2080000EB080000E4080000DD080000D7080000D008000062
:4026C000C9080000C2080000BC080000B5080000AF080000A8080000A10800009B080000940800008E08000087080000810800007B080000740800006E08000067080000DD
:40270000610800005B080000550800004E08000048080000420800003C080000350800002F08000029080000230800001D08000017080000110800000B08000005080000EF
:40274000FF070000F9070000F3070000ED070000E7070000E1070000DB070000D5070000CF070000CA070000C4070000BE070000B8070000B3070000AD070000A7070000BF
:40278000A20700009C07000096070000910700008B07000085070000800700007A070000750700006F0700006A070000640700005F07000059070000540700004F0700002D
:4027C00049070000440700003F07000039070000340700002F07000029070000240700001F0700001A070000140700000F0700000A0700000507000000070000FB0600004F
:40280000F6060000F1060000EC060000E6060000E1060000DC060000D7060000D2060000CD060000C9060000C4060000BF060000BA060000B5060000B0060000AB06000036
:40284000A6060000A20600009D06000098060000930600008E0600008A06000085060000F8B5C046F8BC08BC9E467047D50D000035100000F8B5C046F8BC08BC9E467047C8
:40288000AD0D000098280000D000002018000000480000000000000000000000FF0000000000E02EC05D00001800000000366E010000000000000000000000000000000067
:4028C00000000000000000000000000000000000000000000000000000000000000000000000000000000000000000000000000000000000000000000000000000000000D8
:402900000000000000000000000000000000000000000000000000000000000000000000000000000000000000000000000000000000000000000000000000000000000097
:402940000000000000000000000000000000000000000000000000000000000000000000000000000000000000000000000000000000000000000000000000000000000057
:402980000000000000000000000000000000000000000000000000000000000000000000000000000000000000000000000000000000000000000000000000000000000017
:407FC00075910B000016000000801D0000000000000000000000000000000000000000000000000000000000000000000000000000000000000000000000000000000000BD
:0200000490303A
:02000000B2103C
:0200000490402A
:200000000000000000000000000000000000000000000000000000000000000000000000E0
:0200000490501A
:0C000000000204A61193110104B0C3A378
:0200000490600A
:0100000001FE
:00000001FF