:400000000010002011000000A5020000A502000008B500F0BDFA00F047F9000010B572B680220021D2003E4800F0FDFD80220021D2003C4800F0F7FD3B4A012313703B4AFD
:40004000312113703A4BEE2212021A60394B99221A60394B80221A60384BC022D2031A60374BD82212011A60364B02221A60364B80201960354B36491A6099231B040B60FA
:4000800034490006086034490C200B60334B19780A431A70324A117881430420014311701A7816210A431A702E4A80231168DB020B4313602C4B141C18782C4BC0B2197826
:4000C0002B4BC9B21A78172A05D92A4A58789978033B9342F6D1284B19221860274B05201960274B1A6000F05FFC264B05201A78254BD2B21A6000F049FD2268234B1340AB
:400100002360234A234B1A60234B10221A60234B802212061A60224A224B1A6010BDC04600300F4000400F4002600F4011600F400C00014010000140000204400802044054
:400140000803044000040440080404401804044020500F4024500F4030500F4000700F4001700F4000010B40CCF1FF0FCDF1FF0FC9F1FF0FBDF1FF0F1CFF0B4020FF0B4031
:400180002CFF0B40E5F1FF0F28FF0B40FFFFFBFF0600008004010B400802024008010B40CF0000800000024010B5064C2378002B07D1054B002B02D0044800E000BF012363
:4001C000237010BDF000002000000000400C000008B5084B002B03D00748084900E000BF07480368002B03D0064B002B00D0984708BDC04600000000400C0000F4000020E8
:40020000D00000200000000008B5002000F040F900F04AF9044B4022002800D180221A6000F090FB08BDC046C000002008B500F095F808BD70B50023061C0D1C141C238044
:400240002388AB4205D2F05C00F0A4F823880133F5E7002070BD0000F7B5114C071C5C4300230191151C138010262B88019A934214D2002C12DB00F085F8002809D02B8872
:4002800000265A1C2A80FC1800F0E2F82070044CEBE70A2000F07AFC0A3CE6E7301CFEBD10270000FEE7000070B51048104B0138421C15D01E685C689D680022A118AA4238
:4002C00003D0B158A1500432F8E7DA680D1C4C1B944202D0002410C1F9E710330138E7E700F072FCFFF790FFFEE7C04601000000700C000008B500239A00032B02D80D4960
:40030000895800E00C490D4801338150302BF3D1FFF784FE0A4B00221A600A4B1A68002A00D11A608023DB051A6801210A431A6008BDC04600000000A502000000000020F9
:40034000C8000020C0000020034B8022196812060A431A607047C0460000064010B5054C2378002B03D100F02BF801232370FFF7EBFF10BD0C010020014B18687047C04685
:4003800040030640024B18680F2318407047C04608030640044B1A680F231340082BF9D0024B18607047C0460802064040020640024B002218681A607047C046C80F064060
:4003C000124A134B10B51A60124A00231360124A012111601148124A0724026011480460114803601148016011490A60114A1360114A1360114A1360114A1360114A1360E4
:40040000114A1360114A136010BDC0460B00000200000640400006404800064000030640070000800403064010030640440006400002064004020640880E0640C80E06405A
:40044000480F0640080F0640C80F0640880F064010B5FFF7ADFF041CFFF794FF094B002803D01C60FFF788FF02E0074A10681C60064AD82311689B0013600B401B02184374
:4004800010BDC046C80F064040030640C00F0640044B7F2219681140C201081C1043C0B21860704700020440024B18680006C00F7047C04604020440004710B50023002AC9
:4004C00005D0013A4418A45C1B19DBB2F7E7181C10BD70B57F23051C9D43A0B0C20900235C5D6E469C550133802BF9D17F231840315490B2694600F06BFA20B070BD000021
:40050000013800B509282BD8C901494200F048FB05080A0C0E101715191CFF239B0108E0124B12E0124B0DE0124B0EE0124B00E0124BC9180878C0B217E0114B02E0114BE7
:4005400000E0114BC9180CE0104BC9180B7848788A780002120410431843CB781B0603E000210B7848780002184300BDC13F0000C53F0000C93F0000D03F0000D13F00003B
:40058000D63F0000D23F0000D43F0000D83F00000C4B10B51A6810231A400B4B00D11A601A68802A0DD100240220211C1C60FFF7A7FFA04205D0211C0220FFF7A1FFFFF7D8
:4005C0007BFF10BD00030B40C0000020F8B5041C211C0320FFF794FF211C071C0420FFF78FFF211C061C0620FFF78AFF0025012828D00320211CFFF783FF01370130FF013D
:40060000BF19C0012E1CB84209D203785A1ED2B2FD2A00D801265D19EDB20130F3E70120211CFFF76DFF6D42EBB20625834209D1002E07D0044BE0014042C0180121FFF7C8
:4006400048FF0025281CF8BDD13F0000F0B5B54CA544FFF7EBFD62B600260596002428AF07AD9621381C49002A1CFF23FFF7F4FD01900028F3D12D880295062D00D84DE16B
:400680003A780423012A3CD1FD78BA782D0215437A1911795079039102998446E81D884200D93DE19279172A2BD1EB1801989BB2002B09D0BEA9CA189B49013B52181278C4
:4006C0009BB2801880B2F3E7624613024042039A80B21A430823824213D144E0012E00D01CE16019962303905B00984200D917E173A908192A1C29A900F08CFA039DACB217
:4007000000230021012038706846A13003706B46A2336A4600201E32197058700B1D11809BB2BEADED18AC467F4D013BAC4465462D789BB2AC46604480B2002BF1D1BEADA6
:400740006B184042794D80B2E854794D000AE854784807311B181720187089B2381C9623FFF768FD7BE729A90978A12203916A441378181C31380A2801D90523C1E700F0F9
:4007800019FA0B001900FCFF35007E00FCFFADFF810035008F00B900012E00D0BEE0002D00D0BBE0281CFFF711FF4342434129A803709CE0012E00D0B0E0012D00D0ADE04D
:4007C000039D002D00D0A9E05B4B1B681A688023910BC9B2002901D193045B0E3B717F2200237B71BA71FB7104218BE7342B0CD1012E00D092E0032D00D08FE073A8002191
:40080000802200F010FA802405E0012E00D085E0022D00D882E073AE301969466419EA1EA731A4B200F0F6F9832C6ED1BA797B79039D12021A43EB01D6183F4BB6B21B68A6
:400840001A68D3099BB2500601D001339BB29E425ED3059D002D0AD1291C802208A800F0E2F901257F2008A900F0B2F80595301C73A900F0ADF8012600284DD049E0012E9D
:400880004CD1EBE6002D49D108AB2C4A191C41CA41C129AA41CB41C2082101262B1C31E7012E3BD1032D39D1BB79039D1A027B79E90113435918C901002080220493FFF7E4
:4008C000FCFD051C039800280ED104997F290BD103990520FFF714FE03992D1A0620FFF70FFEEDB22D1AEDB26D4228AB1D710023012107E70020FFF769FE002802D1104BAB
:4009000080221A6000F036F908E00126002407E0012600240A23F4E6041CF1E60423F0E60323EEE604FDFFFFA7FDFFFFACFDFFFFADFDFFFFAEFDFFFFD4000020440C000045
:40094000C000002070B50020FFF740FE0024A04200D00624114E00203368C0211D682A1CC03AFFF7AAFD73681B78181AC0B2984201D1002D02D1002000F0FAF8084B19682D
:400980001A1C402901D0002C03D000231360FFF75DFE80221A6000F0EDF870BDD4000020C0000020000000000230800804D0C0460138FDD1C046C046C0467047EFF3108019
:4009C00072B6704780F310887047C046C046C046F0B50024CBB00694049007947F2800D9A4E0A14200D1A1E008AD8022281C00F011F9231C211C221C0294980028580028D9
:400A000002D01218014302930133202BF5D1002A05D1002900D08EE00191039102E0002001900390484F7F2328AE291C80222AA82897464C736000F0EDF8454A454B266083
:400A400013602168090F0A2903D022680F23134000E000230693069F002F69D1FFF7AEFF3D4A3E4B116807971960069B0590002B14D13B4A04982892289A01040A43289271
:400A800028AA22603249374A0A602268120F0A2A03D02E4B1A680F2313400693069F002F38D1019A002A35D0391C8022281C00F0BAF80298039A08A983005A50224B2AA8D9
:400AC000289380227F23736000F0A4F8214820492660086023681B0F0A2B03D01B4B1F680F231F400697069B002B13D11E4A04982892289A01040A43289215491B4A26607B
:400B00000A602268120F0A2A03D0104B1A680F2313400693079B002B04D1104A0E481268026007930598FFF74DFF01E00423069306984BB0F0BD02998B00E85801210390F5
:400B4000EA5001916EE7C046B6D7000008000040040000400400008008010B4014010020B6D8000005000080B6D900000600008001BE7047034B04491A6892B20A431A6062
:400B80007047C0460CED00E00400FA0508B5034B1B7A5843FFF708FF08BDC046DC00002002B4714649084900095C49008E4402BC7047C04603B47146490840004900095EEC
:400BC00049008E4403BC704770B50E4B0E4D0024ED1AAD101E1CAC4204D0A300F35898470134F8E700F032F8084B094D0024ED1AAD101E1CAC4204D0A300F358984701341D
:400C0000F8E770BD580C0000580C0000580C0000600C000010B50023934203D0CC5CC4540133F9E710BD031C8218934202D019700133FAE770470000A00C00009500000069
:400C40000000000093111004111E0101F8B5C046F8BC08BC9E467047D1010000F5020000F8B5C046F8BC08BC9E467047A9010000800C0000D00000202000000028000000C8
:400C800000000000380C00003C0C00000000E02EC05D00001800000000366E01000000000000000000000000000000000000000000000000000000000000000000000000C0
:400CC00000000000000000000000000000000000000000000000000000000000000000000000000000000000000000000000000000000000000000000000000000000000F4
:400D000000000000000000000000000000000000000000000000000000000000000000000000000000000000000000000000000000000000000000000000000000000000B3
:400D40000000000000000000000000000000000000000000000000000000000000000000000000000000000000000000000000000000000000000000000000000000000073
:400D80000000000000000000000000000000000000000000000000000000000000000000000000000000000000000000000000000000000000000000000000000000000033
:403FC00000000000000000000000000000000000000000000100000000000000000000000000000000000000000000000000000000000000000000000000000000000000C0
:0200000490303A
:020000001C647E
:0200000490402A
:1000000000000000000000000000000000000000F0
:0200000490501A
:0C000000000204101193110104142DF7EC
:0200000490600A
:0100000001FE
:00000001FF