:400000000010002011000000850200008502000008B500F073FA00F037F9000010B572B680220021D200384800F03DFD8023DA000021364800F037FD354C36490120EE229A
:40004000354B0870207010021860344C344899218022C02321600260D903324CD822324B1001216018603149314802243122314B0C600260992130481C600A0480232F49E8
:40008000026018062E4B08602E481A60027806211443047004782C4A0C43047010688023DC02044329492A4B146008781978294B141C1A78172A05D9274A58789978033B3D
:4000C0009342F6D1254B264A18602648016019211160052000F01CFC234B244918780860052000F093FC2268214B2248134023608021102404600B061F4A204C20482149C7
:4001000013602360086010BD00300F4000400F4011600F4002600F400C0001401000014000020440080204400803044000040440080404401804044020500F4024500F401A
:4001400030500F4000700F4000010B40CCF1FF0FCDF1FF0FC9F1FF0FBDF1FF0F1CFF0B402CFF0B4020FF0B40E5F1FF0F28FF0B40FFFFFBFF0802024008010B4004010B4006
:40018000CF0000800000024010B5064C2378002B07D10548002802D0044800E000BF0121217010BDF000002000000000C00A000008B5084B002B03D00748084900E000BF20
:4001C00007480168002903D0064A002A00D0904708BDC04600000000C00A0000F4000020D00000200000000008B5002000F07CFB00F086FB044B4022002800D180221A6016
:4002000000F044FB08BDC046C000002008B500F093F808BD70B5061C0D1C141C002020802388AB4205D2F05C00F0A2F820880130F5E7002070BD0000F7B5114C071C5C4375
:4002400000230191151C138010262888019A904214D2002C12DB00F083F8002809D02C8800F0E4F83E19013430702C800026044CEBE70A2000F0CAFB0A3CE6E7301CFEBDAE
:400280001027000000B5FEE770B50F490F4A01394B1C14D0506895681468031C1E1AAE4202D040CC40C3F9E7D0681D1C5C1B844202D0002640C3F9E710320139E8E700F015
:4002C000C3FBFFF791FFFEE701000000F00A000008B500239A00032B02D80D48815800E00C490D4801338150302BF3D1FFF796FE0A490B4B086800221A60002800D10860DC
:400300008022D305186801210843186008BDC046000000008502000000000020C0000020C8000020034B802219681006084318607047C0460000064010B5054C2378002B7B
:4003400003D100F02BF801202070FFF7EBFF10BD0C010020014B18687047C04640030640024B0F21186808407047C0460803064000B5044B0F211A6811400829F9D0024B58
:40038000186000BD0802064040020640024B002218681A607047C046C80F0640124A134B134810B51A6000230360124A124C1348012121600260124807240460114C124859
:4003C000236001601149124C0A601248124A134913602360124A0360124C13480B6013602360036010BDC0460B0000020000064040000640070000804800064000030640A9
:4004000004030640100306404400064000020640880E0640C80E064004020640480F0640080F0640C80F0640880F064010B5FFF7ADFF041CFFF794FF094B002803D01C6031
:40044000FFF788FF02E0074A10681C60064CD82321689A0022600A401402204310BDC046C80F064040030640C00F064000470000021C013830B506280DD800F0DBFA060E26
:400480002304080A2100164808E0164B1BE0164804E0164802E0002000E015484178007800020843022A04D0032A07D0012A15D104E0020A0302134398B20FE000BA0DE0A3
:4004C0000C4B00E00C4BDD789C7859781B7818062843250228430C042043E3E730BDC046D27F0000C17F0000D67F0000D47F0000C57F0000D87F0000C97F000008B50B4B27
:4005000010201A680A49024000D10A600B68802B0BD1002201200A60FFF7AAFF002804D00120FFF7A5FFFFF7A1FF08BD00030B40C000002070B5021C7F234004151C9D4379
:40054000A0B0000E00235C5D6E469C550133802BF9D17F252A40B154694600F0E9F920B070BD000070B50220FFF782FF061C0320FFF77EFF154B051C18780024012822D09C
:400580000220FFF775FF0136F201411C5619CB01221CB34209D21978481EC5B2FD2D00D801220C19E4B20133F3E7094E64423578E3B20624AB4206D1002A04D003480121EB
:4005C000FFF7B8FF0024201C70BDC046D17F0000C07F0000F0B5A34CA544FFF717FE62B600250095002603AF962124A849003A1CFF23FFF721FE0028F5D13988042306299C
:4006000067D924AA1478012C63D193236B4492221F786A4413783C021C4324AF3A19177953790197E71D9C4603238F4251D89179042317294DD1E3189BB2002B08D0BAAADB
:400640008949D7187A181778013BC01980B2F3E762464042019F110282B239430823914237D168E0342900D09AE0012D00D0F6E0032C00D0F3E06FA80021802200F013FA78
:4006800080266FA9881935192639E21EFF39AEB200F000FA832E00D0DAE0BC797979009F26020E43002F0AD1391C802204A800F0FAF9FF2004A900F03BF901200090301CB5
:4006C0006FA900F035F90125002800D1C3E000260A23002168469130012703706A4624AC6B4692330E32277000200F1D197058701180BBB25C4FBAACE418E4192778013B37
:40070000C0199BB280B2002BF4D14442A0B2BAAF564C7B181F19564C38701F19554C000A38701B19172707311F7089B224A89623FFF770FD57E724AF79783B79081C31384F
:400740000A2801D90523C4E700F06AF90611FC8C2FFC32428C507800012D00D07FE0002C7DD1FFF7FFFE434243413B7163E0012D75D1012C73D1002B71D13F4A25A81468CF
:4007800021889524CF0907703A0A97209627FF216C446F446844397022700370042199E7012D5CD1022C5AD96BE7012D57D119E7012D54D19620371943009F424DD86FAA2F
:4007C000901925A9221C00F065F9BEB2002380E7002C44D104AB294A191CA0CAA0C125AF21CB21C708210125231C73E7012D36D1032C34D196226A449521177869440C78C4
:4008000038021A0220438718FF01002280210139CC5D1219D2B20029F9D1002B08D1FF2806D1174B174918780C78171A3A1BD2B2504224AB1871002301214BE7FFF792FECF
:40084000002802D110488024046000F0D3F806E00125002601E0061CB8E7032339E7042337E7C04614FDFFFFA7FDFFFFACFDFFFFADFDFFFFAEFDFFFFD4000020C40A000092
:40088000D07F0000D17F0000C0000020144810B50368002219680B1C013BBF2B03D01C781219D2B2F8E740680478A21AD3B2A34201D1002902D1002000F09AF8FFF752FE48
:4008C000084C2168221C402901D0002803D000231360FFF77FFE8020206000F08BF810BDD4000020C0000020044B7F2219681140C201081C1043C1B2196070470002044086
:40090000024B18680106C80F7047C046040204400230800804D0C0460138FDD1C046C0467047EFF3108072B6704780F310887047F0B50023A7B0071C0193FF2845D899429F
:4009400043D0244A244C04AE26607F25049206A88022756000F09EF8204D214929602B68002BFCDB2068A0210290029A0B069A4201D1002004E00298020F0F2A02D109205A
:40098000019003E021680B0F0A2BFBD1019A002A1DD12660134E3F0437430497FFF7C1FF1149124A0B6803932A602F68002FFCDB039DA0260D60FFF7B8FF246831060294B8
:4009C0000298884203D0029800E001200190019827B0F0BDB6D70000080000400400004004000080B6D8000008010B400500008001BE7047034B04491A6890B208431860DB
:400A00007047C0460CED00E00400FA0508B5034B197A4843FFF77CFF08BDC046DC00002002B4714649084900095649008E4402BC7047C04602B4714649084900095C49000B
:400A40008E4402BC7047C04670B50E4B0E4D0024E81A85101E1CAC4204D0A100725890470134F8E700F032F80849094A0E1C541AA5100024AC4204D0A300F058804701346B
:400A8000F8E770BDD80A0000D80A0000D80A0000E00A000010B50023934203D0CC5CC4540133F9E710BD00B58218031C934202D019700133FAE700BD200B0000A1000000AD
:400AC000000000009311A60411140101F8B5C046F8BC08BC9E467047B1010000D1020000F8B5C046F8BC08BC9E46704789010000000B0000D00000202000000028000000A3
:400B000000000000B80A0000BC0A00000000E02EC05D00001800000000366E0100000000000000000000000000000000000000000000000000000000000000000000000045
:400B40000000000000000000000000000000000000000000000000000000000000000000000000000000000000000000000000000000000000000000000000000000000075
:400B80000000000000000000000000000000000000000000000000000000000000000000000000000000000000000000000000000000000000000000000000000000000035
:400BC00000000000000000000000000000000000000000000000000000000000000000000000000000000000000000000000000000000000000000000000000000000000F5
:400C000000000000000000000000000000000000000000000000000000000000000000000000000000000000000000000000000000000000000000000000000000000000B4
:407FC0000000000000000000000000000000000000000000010000000000000000000000000000000000000000000000000000000000000000000000000000000000000080
:0200000490303A
:0200000098C2A4
:0200000490402A
:200000000000000000000000000000000000000000000000000000000000000000000000E0
:0200000490501A
:0C000000000204A61193110104A9AA55E6
:0200000490600A
:0100000001FE
:00000001FF