:400000000010002011000000A5020000A502000008B500F0BDFA00F047F9000010B572B680220021D2003E4800F0FDFD80220021D2003C4800F0F7FD3B4A012313703B4AFD
:40004000312113703A4BEE2212021A60394B99221A60394B80221A60384BC022D2031A60374BD82212011A60364B02221A60364B80201960354B36491A6099231B040B60FA
:4000800034490006086034490C200B60334B19780A431A70324A117881430420014311701A7816210A431A702E4A80231168DB020B4313602C4B141C18782C4BC0B2197826
:4000C0002B4BC9B21A78172A05D92A4A58789978033B9342F6D1284B19221860274B05201960274B1A6000F05FFC264B05201A78254BD2B21A6000F049FD2268234B1340AB
:400100002360234A234B1A60234B10221A60234B802212061A60224A224B1A6010BDC04600300F4000400F4002600F4011600F400C00014010000140000204400802044054
:400140000803044000040440080404401804044020500F4024500F4030500F4000700F4001700F4000010B40CCF1FF0FCDF1FF0FC9F1FF0FBDF1FF0F1CFF0B4020FF0B4031
:400180002CFF0B40E5F1FF0F28FF0B40FFFFFBFF0600008004010B400802024008010B40CF0000800000024010B5064C2378002B07D1054B002B02D0044800E000BF012363
:4001C000237010BDF000002000000000400C000008B5084B002B03D00748084900E000BF07480368002B03D0064B002B00D0984708BDC04600000000400C0000F4000020E8
:40020000D00000200000000008B5002000F040F900F04AF9044B4022002800D180221A6000F090FB08BDC046C000002008B500F095F808BD70B50023061C0D1C141C238044
:400240002388AB4205D2F05C00F0A4F823880133F5E7002070BD0000F7B5114C071C5C4300230191151C138010262B88019A934214D2002C12DB00F085F8002809D02B8872
:4002800000265A1C2A80FC1800F0E2F82070044CEBE70A2000F07AFC0A3CE6E7301CFEBD10270000FEE7000070B51048104B0138421C15D01E685C689D680022A118AA4238
:4002C00003D0B158A1500432F8E7DA680D1C4C1B944202D0002410C1F9E710330138E7E700F072FCFFF790FFFEE7C04601000000700C000008B500239A00032B02D80D4960
:40030000895800E00C490D4801338150302BF3D1FFF784FE0A4B00221A600A4B1A68002A00D11A608023DB051A6801210A431A6008BDC04600000000A502000000000020F9
:40034000C8000020C0000020034B8022196812060A431A607047C0460000064010B5054C2378002B03D100F02BF801232370FFF7EBFF10BD0C010020014B18687047C04685
:4003800040030640024B18680F2318407047C04608030640044B1A680F231340082BF9D0024B18607047C0460802064040020640024B002218681A607047C046C80F064060
:4003C000124A134B10B51A60124A00231360124A012111601148124A0724026011480460114803601148016011490A60114A1360114A1360114A1360114A1360114A1360E4
:40040000114A1360114A136010BDC0460B00000200000640400006404800064000030640070000800403064010030640440006400002064004020640880E0640C80E06405A
:40044000480F0640080F0640C80F0640880F064010B5FFF7ADFF041CFFF794FF094B002803D01C60FFF788FF02E0074A10681C60064AD82311689B0013600B401B02184374
:4004800010BDC046C80F064040030640C00F0640044B7F2219681140C201081C1043C0B21860704700020440024B18680006C00F7047C04604020440004710B50023002AC9
:4004C00005D0013A4418A45C1B19DBB2F7E7181C10BD70B57F23051C9D43A0B0C20900235C5D6E469C550133802BF9D17F231840315490B2694600F06BFA20B070BD000021
:40050000013800B509282BD8C901494200F048FB05080A0C0E101715191CFF239B0108E0124B12E0124B0DE0124B0EE0124B00E0124BC9180878C0B217E0114B02E0114BE7
:4005400000E0114BC9180CE0104BC9180B7848788A780002120410431843CB781B0603E000210B7848780002184300BDC13F0000C53F0000C93F0000D03F0000D13F00003B
:40058000D63F0000D23F0000D43F0000D83F00000C4B10B51A6810231A400B4B00D11A601A68802A0DD100240220211C1C60FFF7A7FFA04205D0211C0220FFF7A1FFFFF7D8
:4005C0007BFF10BD00030B40C0000020F8B5041C211C0320FFF794FF211C071C0420FFF78FFF211C061C0620FFF78AFF0025012828D00320211CFFF783FF01370130FF013D
:40060000BF19C0012E1CB84209D203785A1ED2B2FD2A00D801265D19EDB20130F3E70120211CFFF76DFF6D42EBB20625834209D1002E07D0044BE0014042C0180121FFF7C8
:4006400048FF0025281CF8BDD13F0000F0B5B54CA544FFF7EBFD62B600260596002428AF07AD9621381C49002A1CFF23FFF7F4FD01900028F3D12D880295062D00D84DE16B
:400680003A780423012A3CD1FD78BA782D0215437A1911795079039102998446E81D884200D93DE19279172A2BD1EB1801989BB2002B09D0BEA9CA189B49013B52181278C4
:4006C0009BB2801880B2F3E7624613024042039A80B21A430823824213D144E0012E00D01CE16019962303905B00984200D917E173A908192A1C29A900F08CFA039DACB217
:4007000000230021012038706846A13003706B46A2336A4600201E32197058700B1D11809BB2BEADED18AC467F4D013BAC4465462D789BB2AC46604480B2002BF1D1BEADA6
:400740006B184042794D80B2E854794D000AE854784807311B181720187089B2381C9623FFF768FD7BE729A90978A12203916A441378181C31380A2801D90523C1E700F0F9
:4007800019FA0B001900FCFF35007E00FCFFADFF810035008F00B900012E00D0BEE0002D00D0BBE0281CFFF711FF4342434129A803709CE0012E00D0B0E0012D00D0ADE04D
:4007C000039D002D00D0A9E05B4B1B681A688023910BC9B2002901D193045B0E3B717F2200237B71BA71FB7104218BE7342B0CD1012E00D092E0032D00D08FE073A8002191
:40080000802200F010FA802405E0012E00D085E0022D00D882E073AE301969466419EA1EA731A4B200F0F6F9832C6ED1BA797B79039D12021A43EB01D6183F4BB6B21B68A6
:400840001A68D3099BB2500601D001339BB29E425ED3059D002D0AD1291C802208A800F0E2F901257F2008A900F0B2F80595301C73A900F0ADF8012600284DD049E0012E9D
:400880004CD1EBE6002D49D108AB2C4A191C41CA41C129AA41CB41C2082101262B1C31E7012E3BD1032D39D1BB79039D1A027B79E90113435918C901002080220493FFF7E4
:4008C000FCFD051C039800280ED104997F290BD103990520FFF714FE03992D1A0620FFF70FFEEDB22D1AEDB26D4228AB1D710023012107E70020FFF769FE002802D1104BAB
:4009000080221A6000F036F908E00126002407E0012600240A23F4E6041CF1E60423F0E60323EEE604FDFFFFA7FDFFFFACFDFFFFADFDFFFFAEFDFFFFD4000020440C000045
:40094000C000002070B50020FFF740FE0024A04200D00624114E00203368C0211D682A1CC03AFFF7AAFD73681B78181AC0B2984201D1002D02D1002000F0FAF8084B19682D
:400980001A1C402901D0002C03D000231360FFF75DFE80221A6000F0EDF870BDD4000020C0000020000000000230800804D0C0460138FDD1C046C046C0467047EFF3108019
:4009C00072B6704780F310887047C046C046C046F0B50024CBB00694049007947F2800D9A4E0A14200D1A1E008AD8022281C00F011F9231C211C221C0294980028580028D9
:400A000002D01218014302930133202BF5D1002A05D1002900D08EE00191039102E0002001900390484F7F2328AE291C80222AA82897464C736000F0EDF8454A454B266083
:400A400013602168090F0A2903D022680F23134000E000230693069F002F69D1FFF7AEFF3D4A3E4B116807971960069B0590002B14D13B4A04982892289A01040A43289271
:400A800028AA22603249374A0A602268120F0A2A03D02E4B1A680F2313400693069F002F38D1019A002A35D0391C8022281C00F0BAF80298039A08A983005A50224B2AA8D9
:400AC000289380227F23736000F0A4F8214820492660086023681B0F0A2B03D01B4B1F680F231F400697069B002B13D11E4A04982892289A01040A43289215491B4A26607B
:400B00000A602268120F0A2A03D0104B1A680F2313400693079B002B04D1104A0E481268026007930598FFF74DFF01E00423069306984BB0F0BD02998B00E85801210390F5
:400B4000EA5001916EE7C046B6D7000008000040040000400400008008010B4014010020B6D8000005000080B6D900000600008001BE7047034B04491A6892B20A431A6062
:400B80007047C0460CED00E00400FA0508B5034B1B7A5843FFF708FF08BDC046DC00002002B4714649084900095C49008E4402BC7047C04603B47146490840004900095EEC
:400BC00049008E4403BC704770B50E4B0E4D0024ED1AAD101E1CAC4204D0A300F35898470134F8E700F032F8084B094D0024ED1AAD101E1CAC4204D0A300F358984701341D
:400C0000F8E770BD580C0000580C0000580C0000600C000010B50023934203D0CC5CC4540133F9E710BD031C8218934202D019700133FAE770470000A00C00009500000069
:400C40000000000093111004111E0101F8B5C046F8BC08BC9E467047D1010000F5020000F8B5C046F8BC08BC9E467047A9010000800C0000D00000202000000028000000C8
:400C800000000000380C00003C0C00000000E02EC05D00001800000000366E01000000000000000000000000000000000000000000000000000000000000000000000000C0
:400CC00000000000000000000000000000000000000000000000000000000000000000000000000000000000000000000000000000000000000000000000000000000000F4
:400D000000100020110D00008D1100008D11000008B5024B83F3088800F03AFA00100020F7B572B680220021D2005B4800F070FE802200215948D20000F06AFE0023191C75
:400D4000574C18591434C2B20192071CFF2297434A00A4180022019ED5B2AE4209D05500665D6519B446BC446D78664635700132F1E7C0B204330918142BE1D1494B072292
:400D80001A60494BEE2212021A60484B99221A60474B05221A60474B85221A60464A7C231360C021454A09041160454A31211360444BD82212011A60434B02221A60434B25
:400DC000C0201960424B43491A6099231B040B60414980020860414941480B604149086041490C200B60414B19780A431A70404A117881430420014311701A7816210A43F2
:400E00001A703C4A80231168DB020B4313603A4B141C1878394BC0B21978394BC9B21A78172A05D9374A58789978033B9342F6D1354B19221860354B05201960344B1A60E6
:400E400000F0FEFC334B05201A78334BD2B21A6000F042FD2268314B012013402360304A304B1A60304B20221A60304B10221A602F4B822212061A602E4A2F4B1A602F4A49
:400E80002F4B1A602F4A304B1A60304B802212031A6000F0CDF9F7BD00300F4000400F40241A0000040001400C000140100001400001044018010440000204400802044055
:400EC000180204400803044000040440080404401804044010500F4018500F4020500F400000501528500F4030500F4000700F4001700F4000010B40CCF1FF0FCDF1FF0FCB
:400F0000C9F1FF0FBDF1FF0F1CFF0B4020FF0B402CFF0B40E5F1FF0F28FF0B40FFFFFBFF0600008004010B40080202401C02024008010B400400008000000240CF000080AE
:400F400040000240014020008000104000031A4010B5064C2378002B07D1054B002B02D0044800E000BF0123237010BDE800002000000000201A000008B5084B002B03D0A0
:400F80000748084900E000BF07480368002B03D0064B002B00D0984708BDC04600000000201A0000EC000020D00000200000000070B500F003FB00F02BFC00F033FC0120A4
:400FC00000F018FB462000F071FC00F069F900F09BFA022000F0ACFA00F0A0FA002000F0B9FA344C011C2080002000F0BDFA00F057F900F089FA022000F09AFA00F08EFA7A
:40100000002000F0A7FA4000608000F049F900F07BFA022000F08CFA00F080FA0020668800F098FA051C002000F094FA751B011C28B200F07FF900F093F90A2100F060FC15
:401040001D4D80B20923288000B25843052100F057FC4130FF30688000F022F900F054FA022000F065FA00F059FA002000F072FAFA239B0058430223E15E00F041FC0F4B0B
:40108000188000F00DF900F03FFA022000F050FA00F044FA002000F05DFA094B1880002000F0A8FA00F0C8FB00F064FA00F09EFB70BDC0461A010020200100201E01002072
:4010C0002401002038B500F0ABFA00F007FA00F075FB00F04FFA00F089FB00F0BDFA00F0B3FA0028FBD000F025FB051CEC43EDB2FFF75EFF281C00F0BFFA281C6338E4B240
:40110000152838D800F0F2FB0B0D370F131B233737373737373737373737372F3725184B0EE0174D16E0164B0222985E0AE0144DE878241AE4B200F09FFAA87810E0114B1D
:401140000022985E0A2100F0DBFBC0B208E00D4D00E00D4D6878241A00F08EFA2878E4B2241AE4B205E00020023C00F085FAE4B2022000F081FA201C00F07EFAADE7C046C5
:40118000200100201E01002024010020FEE7000070B51048104B0138421C15D01E685C689D680022A118AA4203D0B158A1500432F8E7DA680D1C4C1B944202D0002410C1CA
:4011C000F9E710330138E7E700F0FCFBFFF77AFFFEE7C04601000000242A000008B500239A00032B02D80D49895800E00C490D4801338150302BF3D1FFF792FD0A4B0022D2
:401200001A600A4B1A68002A00D11A608023DB051A6801210A431A6008BDC046000D00008D11000000000020C8000020C0000020064B1A68191C002803D080231B0613437F
:4012400001E053005B080B607047C04680031A400C4BFF221A700C4B0C4A19680A401A6019680B4A0A401A6019680A4A0A401A601968094A0A401A601968084A0A401A607C
:401280007047C046D400002008000140FFF9FFFFFF9FFFFFFFFFF9FFFFFF9FFFFFFFFFF900B51D4A1D4B10780130C0B2107040B2042804D800F01AFB050D151D2500002162
:4012C00011701968164A0A401A60C0221968D2001EE01968134A0A401A60C0221968D20116E01968104A0A401A60C0221968D2020EE019680D4A0A401A60C0221968D2032F
:4013000006E019680A4A0A401A601968C022D2040A431A6000BDC046D400002008000140FFFFFFF9FFF9FFFFFF9FFFFFFFFFF9FFFFFF9FFF08B5031C08484843002B05DA53
:401340005A4292B25208524292B201E09AB2520812B28018191C00F0D3FA08BD10270000FA2270B592000024A5186D10ABB21949002B0FD0AD004D59A8420BD0854203D9D5
:4013800001339CB2131C01E0013B9BB29C4201D21A1CE9E79A008A58824209D90E4CA34206D85C1CA6008E59151A861BB5420AD8824209D2002B07D05C1EA5004959091AE9
:4013C000801A814200D2A3B20A205843034BC01800B270BD5C1A0000E703000030F8FFFF10B50E20032100F047FA1C490E2000F03BFA1B4B01221A601A491B4B1B48196071
:401400001B491C4B19601C491C4B19601C4900230B601C4908601C481C4908601C4980200C684002204308601A4902200B601A490B601A490A601A4908601A491A480C681D
:40144000204002430A60194A8021C9001160184A1380184A184B1A6010BDC046E915000020001A40C002005000001A40D8000400A400008004001A400000FF0718001A405E
:401480001C001A4010001A400400040014001A4000031A4028021A4038021A4018021A40000F1A4030001A40FFFFFFDF80001A402C010020204E00002801002008B5064B32
:4014C0001A68002A07DB1968802212060A431A600A2000F001FA08BD00001A4010B5054C2378002B03D1FFF77BFF01232370FFF7E5FF10BD04010020024B1A68520052080A
:401500001A60704700001A40034B8022196852020A431A607047C04604001A40024B034A19680A401A60704704001A40FFFFFEFF011C00208B0709D0054A0123106818409F
:4015400002D18B07F8D401E01360181C7047C04610021A400023984202D1024B1B689BB218B2704780011A40014B4000C15270472C01002008B50D4B8022196812060A4300
:401580001A600B4B1A680B4B002A0CDA0A4A1268D10301D5032200E001221A70FFF7BEFFFFF7AAFF01E000221A7008BD30001A4000001A400501002004001A40084B10B525
:4015C0001A68084C520052081A602378002B06D0FFF774FF23789A0701D5FFF795FF10BD30001A4005010020014B1A681A60704710021A40044B7F2219681140C201081CBD
:401600001043C0B21860704700020440034B8022196812060A431A607047C0460000064010B5054C2378002B03D100F03BF801232370FFF7EBFF10BD08010020014B1868F1
:401640007047C04640030640024B18680F2318407047C04608030640054B8022196852020A431A601968034A0A401A607047C04604030640FFFFFEFF044B1A680F23134044
:40168000082BF9D0024B18607047C0460802064040020640024B002218681A607047C046C80F0640124A134B10B51A60124A00231360124A012111601148124A0724026075
:4016C00011480460114803601148016011490A60114A1360114A1360114A1360114A1360114A1360114A1360114A136010BDC0460B00000200000640400006404800064017
:4017000000030640070000800403064010030640440006400002064004020640880E0640C80E0640480F0640080F0640C80F0640880F064010B5FFF7ADFF041CFFF784FF29
:40174000094B002803D01C60FFF778FF02E0074A10681C60064AD82311689B0013600B401B02184310BDC046C80F064040030640C00F0640064A032313608021054A0906FF
:401780001160054A04211160044A13607047C046100100200000104004001040080F1040044B054A196812680A43802109010A431A607047040010401001002010B5054C6F
:4017C0002379002B03D1FFF7D5FF01232371FFF7E7FF10BD10010020024B034A19680A401A60704704001040FCF7FFFF08B5064B1A6803231A40054B04D001221A70FFF740
:40180000EBFF00E01A7008BD040010401801002008B5034B1B78002B01D0FFF7C1FF08BD1801002008B5FFF713FD024B01221A7008BDC0461901002008B5FFF709FD08BD74
:401840000230800804D0C0460138FDD1C046C046C0467047EFF3108072B6704780F310887047C046C046C046024A83009B181868196070474000002038B5041C0D1CFFF721
:40188000E9FFA308084A9B009B1803221440944019680634A2409143A5400C1C2C431C60FFF7DCFF38BDC04600E400E010B5041C8022074B1202944205D91868FFF7C0FFD9
:4018C000044BE418F4E758686043FFF7B9FF10BDD80000200080FFFF08B5034B1B7A5843FFF7AEFF08BDC046D800002002B4714649084900095C49008E4402BC7047C046CB
:40190000002941D010B4041C4C40A44601230022002900D54942002800D5404288422CD301242407A14204D2814202D209011B01F8E7E400A14204D2814202D249005B007F
:40194000F8E7884201D3401A1A434C08A04202D3001B5C0822438C08A04202D3001B9C082243CC08A04202D3001BDC082243002803D01B0901D00909E3E7101C6446002C18
:4019800000D5404210BC7047002806D003DB0020C043400801E08020000607B4024802A14018029003BDC046190000000029EBD003B5FFF7A7FF0EBC4243891A1847C0467F
:4019C0007047C04670B50E4B0E4D0024ED1AAD101E1CAC4204D0A300F35898470134F8E701F00EF8084B094D0024ED1AAD101E1CAC4204D0A300F35898470134F8E770BDFA
:401A00000C2A00000C2A00000C2A0000142A0000031C8218934202D019700133FAE770470000000004320F4003330F4004410F4005420F4002430F40B001BE01D804DF011D
:401A40001A808240E4015C108010D620E68056805C026680D402D60180029C028D0A010043090100FA070100B30601006E0501002B040100EA020100AA0101006C0001009B
:401A800030FF0000F5FD0000BCFC000085FB000050FA00001CF90000EAF70000B9F600008AF500005DF4000031F3000007F20000DFF00000B8EF000093EE000070ED00009D
:401AC0004EEC00002DEB00000EEA0000F1E80000D5E70000BAE60000A2E500008AE4000074E3000060E200004DE100003CE000002CDF00001DDE000010DD000005DC0000BB
:401B0000FADA0000F2D90000EAD80000E4D70000E0D60000DDD50000DBD40000DAD30000DBD20000DDD10000E1D00000E6CF0000ECCE0000F4CD0000FDCC000007CC0000ED
:401B400012CB00001FCA00002DC900003DC800004DC700005FC6000072C5000087C400009CC30000B3C20000CBC10000E4C00000FFBF00001BBF000038BE000056BD000044
:401B800075BC000095BB0000B7BA0000DAB90000FEB8000023B8000049B7000070B6000099B50000C2B40000EDB3000019B3000046B2000074B10000A3B00000D3AF0000C7
:401BC00004AF000037AE00006AAD00009FAC0000D4AB00000BAB000042AA00007BA90000B5A80000EFA700002BA7000068A60000A5A50000E4A4000024A4000065A3000031
:401C0000A6A20000E9A100002DA1000071A00000B79F0000FD9E0000459E00008D9D0000D79C0000219C00006C9B0000B89A0000059A000053990000A2980000F29700001E
:401C40004397000094960000E79500003A9500008E940000E39300003993000090920000E8910000409100009A900000F48F00004F8F0000AB8E0000088E0000658D0000F9
:401C8000C48C0000238C0000838B0000E48A0000458A0000A88900000B8900006F880000D487000039870000A0860000078600006F850000D784000041840000AB8300000E
:401CC0001683000081820000EE8100005B810000C980000037800000A77F0000177F0000877E0000F97D00006B7D0000DE7C0000527C0000C67B00003B7B0000B17A000094
:401D0000277A00009E790000167900008E7800000778000081770000FB76000076760000F27500006E750000EB74000069740000E773000066730000E67200006672000099
:401D4000E771000068710000EB7000006D700000F16F0000746F0000F96E00007E6E0000046E00008A6D0000116D0000996C0000216C0000AA6B0000336B0000BD6A000011
:401D8000476A0000D26900005E690000EA68000077680000046800009267000020670000AF6600003F660000CF6500005F650000F06400008264000014640000A7630000E5
:401DC0003A630000CE62000062620000F76100008D61000022610000B960000050600000E75F00007F5F0000175F0000B05E00004A5E0000E45D00007E5D0000195D0000DE
:401E0000B45C0000505C0000EC5B0000895B0000265B0000C45A0000625A0000015A0000A059000040590000E05800008058000021580000C25700006457000007570000B8
:401E4000A95600004D560000F05500009455000039550000DE5400008354000029540000CF530000765300001D530000C55200006C52000015520000BE5100006751000020
:401E800010510000BA500000655000000F500000BB4F0000664F0000124F0000BF4E00006B4E0000194E0000C64D0000744D0000224D0000D14C0000804C0000304C0000AE
:401EC000DF4B0000904B0000404B0000F14A0000A34A0000544A0000064A0000B94900006C4900001F490000D2480000864800003A480000EF470000A447000059470000F2
:401F00000F470000C54600007B46000032460000E8450000A0450000574500000F450000C84400008044000039440000F3430000AC4300006643000021430000DB42000069
:401F400096420000514200000D420000C94100008541000041410000FE400000BB4000007940000036400000F43F0000B33F0000713F0000303F0000F03E0000AF3E00008E
:401F80006F3E00002F3E0000EF3D0000B03D0000713D0000323D0000F43C0000B63C0000783C00003A3C0000FD3B0000C03B0000833B0000463B00000A3B0000CE3A0000C6
:401FC000933A0000573A00001C3A0000E1390000A73900006C39000032390000F8380000BF380000853800004C38000014380000DB370000A33700006B3700003337000077
:40200000FB360000C43600008D3600005636000020360000E9350000B33500007E3500004835000013350000DE340000A934000074340000403400000C340000D8330000FC
:40204000A4330000703300003D3300000A330000D7320000A532000073320000403200000F320000DD310000AB3100007A3100004931000018310000E8300000B8300000A9
:40208000873000005730000028300000F82F0000C92F00009A2F00006B2F00003C2F00000E2F0000DF2E0000B12E0000842E0000562E0000282E0000FB2D0000CE2D0000C5
:4020C000A12D0000752D0000482D00001C2D0000F02C0000C42C0000982C00006D2C0000412C0000162C0000EB2B0000C02B0000962B00006B2B0000412B0000172B000094
:40210000ED2A0000C42A00009A2A0000712A0000482A00001F2A0000F6290000CD290000A52900007D290000552900002D29000005290000DE280000B62800008F2800005A
:4021400068280000412800001A280000F4270000CD270000A7270000812700005B2700003627000010270000EB260000C5260000A02600007B260000572600003226000051
:402180000E260000E9250000C5250000A12500007D2500005A2500003625000013250000F0240000CC240000AA2400008724000064240000422400001F240000FD230000AB
:4021C000DB230000B92300009723000076230000542300003323000012230000F1220000D0220000AF2200008E2200006E2200004E2200002D2200000D220000ED2100009E
:40220000CD210000AE2100008E2100006F210000502100003021000011210000F2200000D4200000B520000097200000782000005A2000003C2000001E2000000020000050
:40224000E21F0000C41F0000A71F00008A1F00006C1F00004F1F0000321F0000151F0000F91E0000DC1E0000BF1E0000A31E0000871E00006A1E00004E1E0000321E0000F5
:40228000171E0000FB1D0000DF1D0000C41D0000A81D00008D1D0000721D0000571D00003C1D0000211D0000061D0000EC1C0000D11C0000B71C00009D1C0000831C0000A8
:4022C000681C00004F1C0000351C00001B1C0000011C0000E81B0000CE1B0000B51B00009C1B0000831B00006A1B0000511B0000381B00001F1B0000071B0000EE1A000091
:40230000D61A0000BD1A0000A51A00008D1A0000751A00005D1A0000451A00002E1A0000161A0000FF190000E7190000D0190000B9190000A11900008A19000073190000D7
:402340005C190000461900002F1900001819000002190000EC180000D5180000BF180000A9180000931800007D18000067180000511800003B18000026180000101800008B
:40238000FB170000E6170000D0170000BB170000A6170000911700007C17000067170000521700003E170000291700001517000000170000EC160000D8160000C3160000D5
:4023C000AF1600009B1600008716000073160000601600004C160000381600002516000011160000FE150000EA150000D7150000C4150000B11500009E1500008B150000C9
:40240000781500006515000053150000401500002D1500001B15000008150000F6140000E4140000D2140000BF140000AD1400009B1400008914000078140000661400007B
:402440005414000042140000311400001F1400000E140000FC130000EB130000DA130000C9130000B8130000A7130000961300008513000074130000631300005213000006
:402480004213000031130000211300001013000000130000EF120000DF120000CF120000BF120000AF1200009F1200008F1200007F1200006F1200005F120000501200007D
:4024C0004012000030120000211200001112000002120000F3110000E3110000D4110000C5110000B6110000A711000098110000891100007A1100006B1100005C110000F5
:402500004E1100003F11000030110000221100001311000005110000F7100000E8100000DA100000CC100000BE100000B0100000A210000094100000861000007810000077
:402540006A1000005C1000004E100000411000003310000025100000181000000A100000FD0F0000F00F0000E20F0000D50F0000C80F0000BB0F0000AE0F0000A00F00001F
:40258000930F0000860F00007A0F00006D0F0000600F0000530F0000460F00003A0F00002D0F0000200F0000140F0000070F0000FB0E0000EF0E0000E20E0000D60E0000F2
:4025C000CA0E0000BD0E0000B10E0000A50E0000990E00008D0E0000810E0000750E0000690E00005D0E0000510E0000460E00003A0E00002E0E0000230E0000170E000003
:402600000C0E0000000E0000F50D0000E90D0000DE0D0000D20D0000C70D0000BC0D0000B10D0000A50D00009A0D00008F0D0000840D0000790D00006E0D0000630D00005E
:40264000580D00004E0D0000430D0000380D00002D0D0000230D0000180D00000D0D0000030D0000F80C0000EE0C0000E30C0000D90C0000CE0C0000C40C0000BA0C00000A
:40268000B00C0000A50C00009B0C0000910C0000870C00007D0C0000730C0000690C00005F0C0000550C00004B0C0000410C0000370C00002D0C0000240C00001A0C000017
:4026C000100C0000070C0000FD0B0000F30B0000EA0B0000E00B0000D70B0000CE0B0000C40B0000BB0B0000B10B0000A80B00009F0B0000960B00008C0B0000830B000096
:402700007A0B0000710B0000680B00005F0B0000560B00004D0B0000440B00003B0B0000320B0000290B0000210B0000180B00000F0B0000060B0000FE0A0000F50A00007B
:40274000EC0A0000E40A0000DB0A0000D30A0000CA0A0000C20A0000B90A0000B10A0000A80A0000A00A0000980A00008F0A0000870A00007F0A0000770A00006F0A0000EA
:40278000660A00005E0A0000560A00004E0A0000460A00003E0A0000360A00002E0A0000260A00001E0A0000160A00000F0A0000070A0000FF090000F7090000F0090000D6
:4027C000E8090000E0090000D9090000D1090000C9090000C2090000BA090000B3090000AB090000A40900009C090000950900008E090000860900007F0900007809000054
:402800007009000069090000620900005B090000530900004C090000450900003E090000370900003009000029090000220900001B090000140900000D090000060900005C
:40284000FF080000F8080000F2080000EB080000E4080000DD080000D7080000D0080000C9080000C2080000BC080000B5080000AF080000A8080000A10800009B0800000D
:40288000940800008E08000087080000810800007B080000740800006E08000067080000610800005B080000550800004E08000048080000420800003C0800003508000050
:4028C0002F08000029080000230800001D08000017080000110800000B08000005080000FF070000F9070000F3070000ED070000E7070000E1070000DB070000D507000040
:40290000CF070000CA070000C4070000BE070000B8070000B3070000AD070000A7070000A20700009C07000096070000910700008B07000085070000800700007A070000DE
:40294000750700006F0700006A070000640700005F07000059070000540700004F07000049070000440700003F07000039070000340700002F070000290700002407000025
:402980001F0700001A070000140700000F0700000A0700000507000000070000FB060000F6060000F1060000EC060000E6060000E1060000DC060000D7060000D20600002B
:4029C000CD060000C9060000C4060000BF060000BA060000B5060000B0060000AB060000A6060000A20600009D06000098060000930600008E0600008A06000085060000E7
:402A0000F8B5C046F8BC08BC9E467047790F0000DD110000F8B5C046F8BC08BC9E467047510F0000382A0000D000002018000000480000000000000000000000FF00000083
:402A40000000E02EC05D00001800000000366E010000000000000000000000000000000000000000000000000000000000000000000000000000000000000000000000006E
:402A80000000000000000000000000000000000000000000000000000000000000000000000000000000000000000000000000000000000000000000000000000000000016
:402AC00000000000000000000000000000000000000000000000000000000000000000000000000000000000000000000000000000000000000000000000000000000000D6
:402B00000000000000000000000000000000000000000000000000000000000000000000000000000000000000000000000000000000000000000000000000000000000095
:402B40000000000000000000000000000000000000000000000000000000000000000000000000000000000000000000000000000000000000000000000000000000000055
:403FC000BC110D000019000000801D000000000000000000000000000000000000000000000000000000000000000000000000000000000000000000000000000000000031
:0200000490303A
:02000000433784
:0200000490402A
:1000000000000000000000000000000000000000F0
:0200000490501A
:0C0000000002041011931101041B54CAEB
:0200000490600A
:0100000001FE
:00000001FF