:400000000010002011000000850200008502000008B500F073FA00F037F9000010B572B680220021D200384800F03DFD8023DA000021364800F037FD354C36490120EE229A
:40004000354B0870207010021860344C344899218022C02321600260D903324CD822324B1001216018603149314802243122314B0C600260992130481C600A0480232F49E8
:40008000026018062E4B08602E481A60027806211443047004782C4A0C43047010688023DC02044329492A4B146008781978294B141C1A78172A05D9274A58789978033B3D
:4000C0009342F6D1254B264A18602648016019211160052000F01CFC234B244918780860052000F093FC2268214B2248134023608021102404600B061F4A204C20482149C7
:4001000013602360086010BD00300F4000400F4011600F4002600F400C0001401000014000020440080204400803044000040440080404401804044020500F4024500F401A
:4001400030500F4000700F4000010B40CCF1FF0FCDF1FF0FC9F1FF0FBDF1FF0F1CFF0B402CFF0B4020FF0B40E5F1FF0F28FF0B40FFFFFBFF0802024008010B4004010B4006
:40018000CF0000800000024010B5064C2378002B07D10548002802D0044800E000BF0121217010BDF000002000000000C00A000008B5084B002B03D00748084900E000BF20
:4001C00007480168002903D0064A002A00D0904708BDC04600000000C00A0000F4000020D00000200000000008B5002000F07CFB00F086FB044B4022002800D180221A6016
:4002000000F044FB08BDC046C000002008B500F093F808BD70B5061C0D1C141C002020802388AB4205D2F05C00F0A2F820880130F5E7002070BD0000F7B5114C071C5C4375
:4002400000230191151C138010262888019A904214D2002C12DB00F083F8002809D02C8800F0E4F83E19013430702C800026044CEBE70A2000F0CAFB0A3CE6E7301CFEBDAE
:400280001027000000B5FEE770B50F490F4A01394B1C14D0506895681468031C1E1AAE4202D040CC40C3F9E7D0681D1C5C1B844202D0002640C3F9E710320139E8E700F015
:4002C000C3FBFFF791FFFEE701000000F00A000008B500239A00032B02D80D48815800E00C490D4801338150302BF3D1FFF796FE0A490B4B086800221A60002800D10860DC
:400300008022D305186801210843186008BDC046000000008502000000000020C0000020C8000020034B802219681006084318607047C0460000064010B5054C2378002B7B
:4003400003D100F02BF801202070FFF7EBFF10BD0C010020014B18687047C04640030640024B0F21186808407047C0460803064000B5044B0F211A6811400829F9D0024B58
:40038000186000BD0802064040020640024B002218681A607047C046C80F0640124A134B134810B51A6000230360124A124C1348012121600260124807240460114C124859
:4003C000236001601149124C0A601248124A134913602360124A0360124C13480B6013602360036010BDC0460B0000020000064040000640070000804800064000030640A9
:4004000004030640100306404400064000020640880E0640C80E064004020640480F0640080F0640C80F0640880F064010B5FFF7ADFF041CFFF794FF094B002803D01C6031
:40044000FFF788FF02E0074A10681C60064CD82321689A0022600A401402204310BDC046C80F064040030640C00F064000470000021C013830B506280DD800F0DBFA060E26
:400480002304080A2100164808E0164B1BE0164804E0164802E0002000E015484178007800020843022A04D0032A07D0012A15D104E0020A0302134398B20FE000BA0DE0A3
:4004C0000C4B00E00C4BDD789C7859781B7818062843250228430C042043E3E730BDC046D27F0000C17F0000D67F0000D47F0000C57F0000D87F0000C97F000008B50B4B27
:4005000010201A680A49024000D10A600B68802B0BD1002201200A60FFF7AAFF002804D00120FFF7A5FFFFF7A1FF08BD00030B40C000002070B5021C7F234004151C9D4379
:40054000A0B0000E00235C5D6E469C550133802BF9D17F252A40B154694600F0E9F920B070BD000070B50220FFF782FF061C0320FFF77EFF154B051C18780024012822D09C
:400580000220FFF775FF0136F201411C5619CB01221CB34209D21978481EC5B2FD2D00D801220C19E4B20133F3E7094E64423578E3B20624AB4206D1002A04D003480121EB
:4005C000FFF7B8FF0024201C70BDC046D17F0000C07F0000F0B5A34CA544FFF717FE62B600250095002603AF962124A849003A1CFF23FFF721FE0028F5D13988042306299C
:4006000067D924AA1478012C63D193236B4492221F786A4413783C021C4324AF3A19177953790197E71D9C4603238F4251D89179042317294DD1E3189BB2002B08D0BAAADB
:400640008949D7187A181778013BC01980B2F3E762464042019F110282B239430823914237D168E0342900D09AE0012D00D0F6E0032C00D0F3E06FA80021802200F013FA78
:4006800080266FA9881935192639E21EFF39AEB200F000FA832E00D0DAE0BC797979009F26020E43002F0AD1391C802204A800F0FAF9FF2004A900F03BF901200090301CB5
:4006C0006FA900F035F90125002800D1C3E000260A23002168469130012703706A4624AC6B4692330E32277000200F1D197058701180BBB25C4FBAACE418E4192778013B37
:40070000C0199BB280B2002BF4D14442A0B2BAAF564C7B181F19564C38701F19554C000A38701B19172707311F7089B224A89623FFF770FD57E724AF79783B79081C31384F
:400740000A2801D90523C4E700F06AF90611FC8C2FFC32428C507800012D00D07FE0002C7DD1FFF7FFFE434243413B7163E0012D75D1012C73D1002B71D13F4A25A81468CF
:4007800021889524CF0907703A0A97209627FF216C446F446844397022700370042199E7012D5CD1022C5AD96BE7012D57D119E7012D54D19620371943009F424DD86FAA2F
:4007C000901925A9221C00F065F9BEB2002380E7002C44D104AB294A191CA0CAA0C125AF21CB21C708210125231C73E7012D36D1032C34D196226A449521177869440C78C4
:4008000038021A0220438718FF01002280210139CC5D1219D2B20029F9D1002B08D1FF2806D1174B174918780C78171A3A1BD2B2504224AB1871002301214BE7FFF792FECF
:40084000002802D110488024046000F0D3F806E00125002601E0061CB8E7032339E7042337E7C04614FDFFFFA7FDFFFFACFDFFFFADFDFFFFAEFDFFFFD4000020C40A000092
:40088000D07F0000D17F0000C0000020144810B50368002219680B1C013BBF2B03D01C781219D2B2F8E740680478A21AD3B2A34201D1002902D1002000F09AF8FFF752FE48
:4008C000084C2168221C402901D0002803D000231360FFF77FFE8020206000F08BF810BDD4000020C0000020044B7F2219681140C201081C1043C1B2196070470002044086
:40090000024B18680106C80F7047C046040204400230800804D0C0460138FDD1C046C0467047EFF3108072B6704780F310887047F0B50023A7B0071C0193FF2845D899429F
:4009400043D0244A244C04AE26607F25049206A88022756000F09EF8204D214929602B68002BFCDB2068A0210290029A0B069A4201D1002004E00298020F0F2A02D109205A
:40098000019003E021680B0F0A2BFBD1019A002A1DD12660134E3F0437430497FFF7C1FF1149124A0B6803932A602F68002FFCDB039DA0260D60FFF7B8FF246831060294B8
:4009C0000298884203D0029800E001200190019827B0F0BDB6D70000080000400400004004000080B6D8000008010B400500008001BE7047034B04491A6890B208431860DB
:400A00007047C0460CED00E00400FA0508B5034B197A4843FFF77CFF08BDC046DC00002002B4714649084900095649008E4402BC7047C04602B4714649084900095C49000B
:400A40008E4402BC7047C04670B50E4B0E4D0024E81A85101E1CAC4204D0A100725890470134F8E700F032F80849094A0E1C541AA5100024AC4204D0A300F058804701346B
:400A8000F8E770BDD80A0000D80A0000D80A0000E00A000010B50023934203D0CC5CC4540133F9E710BD00B58218031C934202D019700133FAE700BD200B0000A1000000AD
:400AC000000000009311A60411140101F8B5C046F8BC08BC9E467047B1010000D1020000F8B5C046F8BC08BC9E46704789010000000B0000D00000202000000028000000A3
:400B000000000000B80A0000BC0A00000000E02EC05D00001800000000366E0100000000000000000000000000000000000000000000000000000000000000000000000045
:400B40000000000000000000000000000000000000000000000000000000000000000000000000000000000000000000000000000000000000000000000000000000000075
:400B800000100020910B00000D1000000D10000008B5024B83F3088800F03AFA00100020F7B572B680220021D2005B4800F0C2FE802200215948D20000F0BCFE0023191CD7
:400BC000574C18591834C2B20192071CFF2297434A00A4180022019ED5B2AE4209D05500665D6519B446BC446D78664635700132F1E7C0B204330918182BE1D1494B07220C
:400C00001A60494BEE2212021A60484B99221A60474B05221A60474B85221A60464A7C231360C021454A09041160454A31211360444BD82212011A60434B02221A60434BA6
:400C4000C0201960424B43491A6099231B040B60414980020860414941480B604149086041493C200B60414B19780A431A70404A117881431420014311701A7816210A4333
:400C80001A703C4A80231168DB020B4313603A4B141C1878394BC0B21978394BC9B21A78172A05D9374A58789978033B9342F6D1354B19221860354B05201960344B1A6068
:400CC00000F032FD334B05201A78334BD2B21A6000F08AFD2268314B012013402360304A304B1A60304B20221A60304B10221A602F4B822212061A602E4A2F4B1A602F4A4E
:400D00002F4B1A602F4A304B1A60304B802212031A6000F0CDF9F7BD00300F4000400F4048190000040001400C0001401000014000010440180104400002044008020440B3
:400D4000180204400803044000040440080404401804044010500F4018500F4020500F400000501528500F4030500F4000700F4001700F4000010B40CCF1FF0FCDF1FF0F4C
:400D8000C9F1FF0FBDF1FF0F1CFF0B4020FF0B402CFF0B40E5F1FF0F28FF0B40FFFFFBFF0600008004010B40080202401C02024008010B400400008000000240CF00008030
:400DC00040000240014020008000104000031A4010B5064C2378002B07D1054B002B02D0044800E000BF0123237010BDE8000020000000004419000008B5084B002B03D0FF
:400E00000748084900E000BF07480368002B03D0064B002B00D0984708BDC0460000000044190000EC000020D00000200000000070B500F019FB00F05FFC00F067FC012084
:400E400000F03AFB462000F0B9FC00F069F900F0A3FA022000F0B4FA00F0A8FA002000F0C1FA344C011C2080002000F0C5FA00F057F900F091FA022000F0A2FA00F096FA51
:400E8000002000F0AFFA4000608000F049F900F083FA022000F094FA00F088FA0020668800F0A0FA051C002000F09CFA751B011C28B200F07FF900F093F90A2100F0B2FC15
:400EC0001D4D80B20923288000B25843052100F0A9FC4130FF30688000F022F900F05CFA022000F06DFA00F061FA002000F07AFAFA239B0058430223E15E00F093FC0F4BC9
:400F0000188000F00DF900F047FA022000F058FA00F04CFA002000F065FA094B1880002000F0CAFA00F0FCFB00F06CFA00F0D2FB70BDC0461A010020200100201E01002041
:400F40002401002038B500F0D1FA00F00FFA00F0A9FB00F057FA00F0BDFB00F0E3FA00F0D9FA0028FBD000F059FB051CEC43EDB2FFF75EFF281C00F0E5FA281C6338E4B27D
:400F8000152838D800F044FC0B0D370F131B233737373737373737373737372F3725184B0EE0174D16E0164B0222985E0AE0144DE878241AE4B200F0C5FAA87810E0114B26
:400FC0000022985E0A2100F02DFCC0B208E00D4D00E00D4D6878241A00F0B4FA2878E4B2241AE4B205E00120023C00F0ABFAE4B2012000F0A7FA201C00F0A4FAADE7C0465C
:40100000200100201E01002024010020FEE7000070B51048104B0138421C15D01E685C689D680022A118AA4203D0B158A1500432F8E7DA680D1C4C1B944202D0002410C14B
:40104000F9E710330138E7E700F04EFCFFF77AFFFEE7C046010000008021000008B500239A00032B02D80D49895800E00C490D4801338150302BF3D1FFF792FD0A4B0022AD
:401080001A600A4B1A68002A00D11A608023DB051A6801210A431A6008BDC046800B00000D10000000000020C8000020C0000020064B1A68191C002803D080231B06134304
:4010C00001E053005B080B607047C04680031A400C4BFF221A700C4B0C4A19680A401A6019680B4A0A401A6019680A4A0A401A601968094A0A401A601968084A0A401A60FE
:401100007047C046D400002008000140FFF9FFFFFF9FFFFFFFFFF9FFFFFF9FFFFFFFFFF900B51D4A1D4B10780130C0B2107040B2042804D800F06CFB050D151D2500002191
:4011400011701968164A0A401A60C0221968D2001EE01968134A0A401A60C0221968D20116E01968104A0A401A60C0221968D2020EE019680D4A0A401A60C0221968D203B0
:4011800006E019680A4A0A401A601968C022D2040A431A6000BDC046D400002008000140FFFFFFF9FFF9FFFFFF9FFFFFFFFFF9FFFFFF9FFF08B5031C08484843002B05DAD5
:4011C0005A4292B25208524292B201E09AB2520812B28018191C00F025FB08BD10270000FA2270B552000024A5186D10ABB21949002B0FD0AD004D59A8420BD0854203D944
:4012000001339CB2131C01E0013B9BB29C4201D21A1CE9E79A008A5882420AD9F424FF34A34206D85C1CA6008E59151A861BB5420AD8824209D2002B07D05C1EA50049599B
:40124000091A801A814200D2A3B20A20434318B270BDC0468819000010B50E20032100F07FFA20490E2000F073FA1F4B01221A601E4A1F4B11681B68002B01DA1D4B00E0E2
:401280001D4B0B4313601D4A1D4B1E491A601E4A1E4B1A601E4A002313601E4A11601E491E4A11601E4A802110684902014311601C4A012113601C4A022013601B4A1160A6
:4012C0001B4A10601B4A1C4814682040014311601A4A8021C9001160194A1380194A1A4B1A6010BDAD14000020001A4000001A4080031A40C0021050C0020050A4000080B1
:4013000004001A40D80004000000FF0718001A401C001A4010001A400400040014001A4000031A4028021A4038021A4018021A40000F1A4030001A40FFFFFFDF80001A4013
:401340002C010020204E00002801002008B5064B1A68002A07DB1968802212060A431A600A2000F041FA08BD00001A4010B5054C2378002B03D1FFF76FFF01232370FFF796
:40138000E5FF10BD04010020024B1A68520052081A60704700001A40034B8022196852020A431A607047C04604001A40024B034A19680A401A60704704001A40FFFFFEFFBB
:4013C000011C00208B0709D0054A01231068184002D18B07F8D401E01360181C7047C04610021A400023984202D1024B1B689BB218B2704780011A40014B4000C152704781
:401400002C01002038B5134B8022196812060A431A60114B114C1A681D1C0023002A16DA0F4B1B68D90301D5032300E001232370FFF7BCFFFFF7A8FF2A68074BD10207D534
:401440001968084A0A401A60237804221343237038BDC04630001A4000001A400501002004001A40FFFFEFFF0D4B10B51A68520052081A600B4A1378141C002B0ED05A079D
:4014800005D5094B8022196852030A431A60FFF75DFF23789A0701D5FFF77EFF10BDC04630001A400501002000001A40014B1A681A60704710021A40044B7F2219681140DE
:4014C000C201081C1043C0B2186070470002044008B5054B8022196812060A431A600A2000F058F908BDC0460000064010B5054C2378002B03D100F03BF801232370FFF7C0
:40150000E7FF10BD08010020014B18687047C04640030640024B18680F2318407047C04608030640054B8022196852020A431A601968034A0A401A607047C046040306402E
:40154000FFFFFEFF044B1A680F231340082BF9D0024B18607047C0460802064040020640024B002218681A607047C046C80F0640184A194B10B51A60184B00241C60184B16
:4015800001221A601749184B07200B601749086017490A200C6017490A60174A1360174B1C6000F001F90A20032100F0D9F814490A2000F0CDF8134B04221C60124B1C60F1
:4015C000124B1C60124B1C60124B1A60124B1C6010BDC0460B00000200000640400006404800064000030640070000800403064010030640440006400002064004020640BB
:40160000FD170000880E0640C80E0640480F0640080F0640C80F0640880F064010B5FFF79FFF041CFFF776FF094B002803D01C60FFF76AFF02E0074A10681C60064AD8232A
:4016400011689B0013600B401B02184310BDC046C80F064040030640C00F0640064A032313608021054A09061160054A04211160044A13607047C046100100200000104055
:4016800004001040080F1040044B054A196812680A43802109010A431A607047040010401001002010B5054C2379002B03D1FFF7D5FF01232371FFF7E7FF10BD10010020CE
:4016C000024B034A19680A401A60704704001040FCF7FFFF08B5064B1A6803231A40054B04D001221A70FFF7EBFF00E01A7008BD040010401801002008B5034B1B78002BC9
:4017000001D0FFF7C1FF08BD1801002008B5FFF7DFFC024B01221A7008BDC0461901002008B5FFF7D5FC08BD0230800804D0C0460138FDD1C046C046C0467047EFF3108078
:4017400072B6704780F310887047C046C046C046024A83009B181868196070474000002038B5041C0D1CFFF7E9FFA308084A9B009B1803221440944019680634A240914307
:40178000A5400C1C2C431C60FFF7DCFF38BDC04600E400E01F23184001238340181C014B1860704700E100E01F23184001238340181C014B1860704780E100E010B5041C5A
:4017C0008022074B1202944205D91868FFF7ACFF044BE418F4E758686043FFF7A5FF10BDD80000200080FFFF08B5034B1B7A5843FFF79AFF08BDC046D800002008B5034B0E
:401800001B68002B00D0984708BDC0460C01002002B4714649084900095C49008E4402BC7047C046002941D010B4041C4C40A44601230022002900D54942002800D540426F
:4018400088422CD301242407A14204D2814202D209011B01F8E7E400A14204D2814202D249005B00F8E7884201D3401A1A434C08A04202D3001B5C0822438C08A04202D3B4
:40188000001B9C082243CC08A04202D3001BDC082243002803D01B0901D00909E3E7101C6446002C00D5404210BC7047002806D003DB0020C043400801E08020000607B4E4
:4018C000024802A14018029003BDC046190000000029EBD003B5FFF7A7FF0EBC4243891A1847C0467047C04670B50E4B0E4D0024ED1AAD101E1CAC4204D0A300F35898475C
:401900000134F8E700F02AFC084B094D0024ED1AAD101E1CAC4204D0A300F35898470134F8E770BD68210000682100006821000070210000031C8218934202D01970013399
:40194000FAE770470000000004300F4001310F4003330F4004410F4005420F4002430F4034013E1058045F01180880049008E4015C108010D620E68056805C026680D402E0
:40198000D60180029C0200009C5500004A550000F9540000A85400005854000008540000B85300006853000019530000CA5200007C5200002E520000E0510000925100009F
:4019C00045510000F8500000AC5000005F50000013500000C84F00007C4F0000314F0000E74E00009C4E0000524E0000094E0000BF4D0000764D00002D4D0000E54C000009
:401A00009C4C0000554C00000D4C0000C64B00007F4B0000384B0000F14A0000AB4A0000654A0000204A0000DB49000096490000514900000C490000C8480000844800004F
:401A400041480000FD470000BA4700007847000035470000F3460000B14600006F4600002E460000ED450000AC4500006B4500002B450000EB440000AB4400006C440000F3
:401A80002C440000ED430000AF4300007043000032430000F4420000B6420000794200003B420000FE410000C241000085410000494100000D410000D1400000964000003F
:401AC0005A4000001F400000E43F0000AA3F0000703F0000353F0000FC3E0000C23E0000893E00004F3E0000173E0000DE3D0000A53D00006D3D0000353D0000FD3C000089
:401B0000C63C00008F3C0000573C0000213C0000EA3B0000B33B00007D3B0000473B0000113B0000DC3A0000A63A0000713A00003C3A0000083A0000D33900009F39000012
:401B40006B3900003739000003390000D03800009D380000693800003738000004380000D23700009F3700006D3700003B3700000A370000D8360000A7360000763600001F
:401B80004536000014360000E4350000B4350000843500005435000024350000F5340000C53400009634000067340000383400000A340000DB330000AD3300007F330000F2
:401BC0005133000024330000F6320000C93200009C3200006F3200004232000015320000E9310000BD3100009131000065310000393100000D310000E2300000B7300000BC
:401C00008C30000061300000363000000C300000E12F0000B72F00008D2F0000632F0000392F0000102F0000E62E0000BD2E0000942E00006B2E0000422E00001A2E0000B8
:401C4000F12D0000C92D0000A12D0000792D0000512D00002A2D0000022D0000DB2C0000B32C00008C2C0000662C00003F2C0000182C0000F22B0000CB2B0000A52B000016
:401C80007F2B0000592B0000342B00000E2B0000E92A0000C42A00009E2A0000792A0000552A0000302A00000B2A0000E7290000C32900009F2900007B29000057290000FC
:401CC000332900000F290000EC280000C9280000A5280000822800005F2800003D2800001A280000F8270000D5270000B3270000912700006F2700004D2700002B2700009D
:401D00000A270000E8260000C7260000A62600008526000064260000432600002226000001260000E1250000C1250000A02500008025000060250000402500002125000018
:401D400001250000E2240000C2240000A32400008424000065240000462400002724000009240000EA230000CC230000AD2300008F23000071230000532300003523000097
:401D800017230000FA220000DC220000BF220000A122000084220000672200004A2200002D22000010220000F4210000D7210000BB2100009E21000082210000662100003D
:401DC0004A2100002E21000012210000F7200000DB200000C0200000A4200000892000006E20000053200000382000001D20000002200000E71F0000CD1F0000B21F00001C
:401E0000981F00007D1F0000631F0000491F00002F1F0000151F0000FB1E0000E21E0000C81E0000AE1E0000951E00007C1E0000621E0000491E0000301E0000171E000061
:401E4000FE1D0000E61D0000CD1D0000B41D00009C1D0000831D00006B1D0000531D00003B1D0000231D00000B1D0000F31C0000DB1C0000C31C0000AC1C0000941C00001B
:401E80007D1C0000651C00004E1C0000371C0000201C0000091C0000F21B0000DB1B0000C41B0000AD1B0000971B0000801B00006A1B0000531B00003D1B0000271B000066
:401EC000111B0000FB1A0000E51A0000CF1A0000B91A0000A31A00008E1A0000781A0000631A00004D1A0000381A0000231A00000D1A0000F8190000E3190000CE19000061
:401F0000B9190000A5190000901900007B19000067190000521900003E190000291900001519000001190000ED180000D9180000C5180000B11800009D1800008918000016
:401F400075180000621800004E1800003B180000271800001418000001180000ED170000DA170000C7170000B4170000A11700008E1700007C1700006917000056170000A2
:401F800043170000311700001E1700000C170000FA160000E7160000D5160000C3160000B11600009F1600008D1600007B1600006916000058160000461600003416000013
:401FC000231600001116000000160000EE150000DD150000CC150000BA150000A9150000981500008715000076150000651500005415000044150000331500002215000079
:402000001215000001150000F1140000E0140000D0140000BF140000AF1400009F1400008F1400007F1400006F1400005F1400004F1400003F1400002F1400001F140000E5
:402040001014000000140000F0130000E1130000D1130000C2130000B2130000A3130000941300008513000075130000661300005713000048130000391300002A1300006F
:402080001C1300000D130000FE120000EF120000E1120000D2120000C4120000B5120000A7120000981200008A1200007C1200006D1200005F120000511200004312000017
:4020C0003512000027120000191200000B120000FD110000EF110000E1110000D4110000C6110000B8110000AB1100009D11000090110000821100007511000068110000F6
:402100005A1100004D110000401100003311000026110000191100000C110000FF100000F2100000E5100000D8100000CB100000BE100000B2100000A5100000981000000D
:402140008C1000007F10000073100000661000005A1000004D10000041100000F8B5C046F8BC08BC9E467047F90D00005D100000F8B5C046F8BC08BC9E467047D10D000046
:4021800090210000D0000020180000004800000000000000FF0000000000E02EC05D00001800000000366E0100000000000000000000000000000000000000000000000037
:4021C00000000000000000000000000000000000000000000000000000000000000000000000000000000000000000000000000000000000000000000000000000000000DF
:40220000000000000000000000000000000000000000000000000000000000000000000000000000000000000000000000000000000000000000000000000000000000009E
:40224000000000000000000000000000000000000000000000000000000000000000000000000000000000000000000000000000000000000000000000000000000000005E
:40228000000000000000000000000000000000000000000000000000000000000000000000000000000000000000000000000000000000000000000000000000000000001E
:407FC000BB910B000016000000801600000000000000000000000000000000000000000000000000000000000000000000000000000000000000000000000000000000007E
:0200000490303A
:020000005E0997
:0200000490402A
:200000000000000000000000000000000000000000000000000000000000000000000000E0
:0200000490501A
:0C000000000204A61193110104AF6F9CD4
:0200000490600A
:0100000001FE
:00000001FF